{
  "_format": "hh-sol-artifact-1",
  "contractName": "AlbashAccessControl",
  "sourceName": "contracts/AlbashAccessControl.sol",
  "abi": [
    {
      "inputs": [],
      "stateMutability": "nonpayable",
      "type": "constructor"
    },
    {
      "anonymous": false,
      "inputs": [
        {
          "indexed": true,
          "internalType": "address",
          "name": "oldAdmin",
          "type": "address"
        },
        {
          "indexed": true,
          "internalType": "address",
          "name": "newAdmin",
          "type": "address"
        }
      ],
      "name": "AdminChanged",
      "type": "event"
    },
    {
      "anonymous": false,
      "inputs": [
        {
          "indexed": true,
          "internalType": "address",
          "name": "user",
          "type": "address"
        }
      ],
      "name": "UserRevoked",
      "type": "event"
    },
    {
      "anonymous": false,
      "inputs": [
        {
          "indexed": true,
          "internalType": "address",
          "name": "user",
          "type": "address"
        }
      ],
      "name": "UserVerified",
      "type": "event"
    },
    {
      "anonymous": false,
      "inputs": [
        {
          "indexed": true,
          "internalType": "address",
          "name": "verifier",
          "type": "address"
        }
      ],
      "name": "VerifierAdded",
      "type": "event"
    },
    {
      "anonymous": false,
      "inputs": [
        {
          "indexed": true,
          "internalType": "address",
          "name": "verifier",
          "type": "address"
        }
      ],
      "name": "VerifierRemoved",
      "type": "event"
    },
    {
      "inputs": [
        {
          "internalType": "address",
          "name": "_verifier",
          "type": "address"
        }
      ],
      "name": "addVerifier",
      "outputs": [],
      "stateMutability": "nonpayable",
      "type": "function"
    },
    {
      "inputs": [],
      "name": "admin",
      "outputs": [
        {
          "internalType": "address",
          "name": "",
          "type": "address"
        }
      ],
      "stateMutability": "view",
      "type": "function"
    },
    {
      "inputs": [
        {
          "internalType": "address",
          "name": "_newAdmin",
          "type": "address"
        }
      ],
      "name": "changeAdmin",
      "outputs": [],
      "stateMutability": "nonpayable",
      "type": "function"
    },
    {
      "inputs": [
        {
          "internalType": "address",
          "name": "_user",
          "type": "address"
        }
      ],
      "name": "isVerified",
      "outputs": [
        {
          "internalType": "bool",
          "name": "",
          "type": "bool"
        }
      ],
      "stateMutability": "view",
      "type": "function"
    },
    {
      "inputs": [
        {
          "internalType": "address",
          "name": "_verifier",
          "type": "address"
        }
      ],
      "name": "removeVerifier",
      "outputs": [],
      "stateMutability": "nonpayable",
      "type": "function"
    },
    {
      "inputs": [
        {
          "internalType": "address",
          "name": "_user",
          "type": "address"
        }
      ],
      "name": "revokeUser",
      "outputs": [],
      "stateMutability": "nonpayable",
      "type": "function"
    },
    {
      "inputs": [
        {
          "internalType": "address",
          "name": "",
          "type": "address"
        }
      ],
      "name": "verifiedUsers",
      "outputs": [
        {
          "internalType": "bool",
          "name": "",
          "type": "bool"
        }
      ],
      "stateMutability": "view",
      "type": "function"
    },
    {
      "inputs": [
        {
          "internalType": "address",
          "name": "",
          "type": "address"
        }
      ],
      "name": "verifiers",
      "outputs": [
        {
          "internalType": "bool",
          "name": "",
          "type": "bool"
        }
      ],
      "stateMutability": "view",
      "type": "function"
    },
    {
      "inputs": [
        {
          "internalType": "address",
          "name": "_user",
          "type": "address"
        }
      ],
      "name": "verifyUser",
      "outputs": [],
      "stateMutability": "nonpayable",
      "type": "function"
    }
  ],
  "bytecode": "0x608060405234801561001057600080fd5b50600080546001600160a01b0319163317905561056b806100326000396000f3fe608060405234801561001057600080fd5b50600436106100935760003560e01c8063b9209e3311610066578063b9209e331461010b578063ca2dfd0a14610137578063e35fe3661461014a578063ef097fc41461016d578063f851a4401461018057600080fd5b80634d813120146100985780636c824487146100ad5780638f283970146100e55780639000b3d6146100f8575b600080fd5b6100ab6100a63660046104b9565b6101ab565b005b6100d06100bb3660046104b9565b60016020526000908152604090205460ff1681565b60405190151581526020015b60405180910390f35b6100ab6100f33660046104b9565b610270565b6100ab6101063660046104b9565b610310565b6100d06101193660046104b9565b6001600160a01b031660009081526002602052604090205460ff1690565b6100ab6101453660046104b9565b6103af565b6100d06101583660046104b9565b60026020526000908152604090205460ff1681565b6100ab61017b3660046104b9565b610422565b600054610193906001600160a01b031681565b6040516001600160a01b0390911681526020016100dc565b3360009081526001602052604090205460ff166101fe5760405162461bcd60e51b815260206004820152600c60248201526b2737ba103b32b934b334b2b960a11b60448201526064015b60405180910390fd5b6001600160a01b0381166102245760405162461bcd60e51b81526004016101f5906104e9565b6001600160a01b038116600081815260026020526040808220805460ff19166001179055517fa6625d2d26e786e2f473111bea4b2fcdbbf1863d883a2359989ce3a103d2972a9190a250565b6000546001600160a01b0316331461029a5760405162461bcd60e51b81526004016101f590610512565b6001600160a01b0381166102c05760405162461bcd60e51b81526004016101f5906104e9565b600080546001600160a01b038381166001600160a01b0319831681178455604051919092169283917f7e644d79422f17c01e4894b5f4f588d331ebfa28653d42ae832dc59e38c9798f9190a35050565b6000546001600160a01b0316331461033a5760405162461bcd60e51b81526004016101f590610512565b6001600160a01b0381166103605760405162461bcd60e51b81526004016101f5906104e9565b6001600160a01b0381166000818152600160208190526040808320805460ff1916909217909155517f6d05492139c5ea989514a5d2150c028041e5c087e2a39967f67dc7d2655adb819190a250565b6000546001600160a01b031633146103d95760405162461bcd60e51b81526004016101f590610512565b6001600160a01b038116600081815260016020526040808220805460ff19169055517f44a3cd4eb5cc5748f6169df057b1cb2ae4c383e87cd94663c430e095d4cba4249190a250565b3360009081526001602052604090205460ff166104705760405162461bcd60e51b815260206004820152600c60248201526b2737ba103b32b934b334b2b960a11b60448201526064016101f5565b6001600160a01b038116600081815260026020526040808220805460ff19169055517fb43ac7bf01d16ebcb8c868a4c03fecb1f6984ea4fa1a52c116ef282b8dbb17c59190a250565b6000602082840312156104cb57600080fd5b81356001600160a01b03811681146104e257600080fd5b9392505050565b6020808252600f908201526e496e76616c6964206164647265737360881b604082015260600190565b6020808252600990820152682737ba1030b236b4b760b91b60408201526060019056fea2646970667358221220a09b417bf32135ecfdff538e7ec91876e1b2b66e7fde69e0c8db09a96d06793e64736f6c63430008140033",
  "linkReferences": {},
  "deployedLinkReferences": {}
}