{
  "_format": "hh-sol-artifact-1",
  "contractName": "AlbashNFT",
  "sourceName": "contracts/AlbashNFT.sol",
  "abi": [
    {
      "inputs": [
        {
          "internalType": "address",
          "name": "_accessControl",
          "type": "address"
        }
      ],
      "stateMutability": "nonpayable",
      "type": "constructor"
    },
    {
      "anonymous": false,
      "inputs": [
        {
          "indexed": true,
          "internalType": "address",
          "name": "oldAccessControl",
          "type": "address"
        },
        {
          "indexed": true,
          "internalType": "address",
          "name": "newAccessControl",
          "type": "address"
        }
      ],
      "name": "AccessControlUpdated",
      "type": "event"
    },
    {
      "anonymous": false,
      "inputs": [
        {
          "indexed": true,
          "internalType": "address",
          "name": "owner",
          "type": "address"
        },
        {
          "indexed": true,
          "internalType": "address",
          "name": "approved",
          "type": "address"
        },
        {
          "indexed": true,
          "internalType": "uint256",
          "name": "tokenId",
          "type": "uint256"
        }
      ],
      "name": "Approval",
      "type": "event"
    },
    {
      "anonymous": false,
      "inputs": [
        {
          "indexed": true,
          "internalType": "address",
          "name": "owner",
          "type": "address"
        },
        {
          "indexed": true,
          "internalType": "address",
          "name": "operator",
          "type": "address"
        },
        {
          "indexed": false,
          "internalType": "bool",
          "name": "approved",
          "type": "bool"
        }
      ],
      "name": "ApprovalForAll",
      "type": "event"
    },
    {
      "anonymous": false,
      "inputs": [
        {
          "indexed": false,
          "internalType": "uint256",
          "name": "_fromTokenId",
          "type": "uint256"
        },
        {
          "indexed": false,
          "internalType": "uint256",
          "name": "_toTokenId",
          "type": "uint256"
        }
      ],
      "name": "BatchMetadataUpdate",
      "type": "event"
    },
    {
      "anonymous": false,
      "inputs": [
        {
          "indexed": true,
          "internalType": "address",
          "name": "oldMarketplace",
          "type": "address"
        },
        {
          "indexed": true,
          "internalType": "address",
          "name": "newMarketplace",
          "type": "address"
        }
      ],
      "name": "MarketplaceUpdated",
      "type": "event"
    },
    {
      "anonymous": false,
      "inputs": [
        {
          "indexed": false,
          "internalType": "uint256",
          "name": "_tokenId",
          "type": "uint256"
        }
      ],
      "name": "MetadataUpdate",
      "type": "event"
    },
    {
      "anonymous": false,
      "inputs": [
        {
          "indexed": true,
          "internalType": "uint256",
          "name": "tokenId",
          "type": "uint256"
        },
        {
          "indexed": true,
          "internalType": "address",
          "name": "to",
          "type": "address"
        },
        {
          "indexed": false,
          "internalType": "enum AlbashNFT.AssetType",
          "name": "assetType",
          "type": "uint8"
        },
        {
          "indexed": false,
          "internalType": "string",
          "name": "metadataURI",
          "type": "string"
        }
      ],
      "name": "NFTMinted",
      "type": "event"
    },
    {
      "anonymous": false,
      "inputs": [
        {
          "indexed": true,
          "internalType": "address",
          "name": "previousOwner",
          "type": "address"
        },
        {
          "indexed": true,
          "internalType": "address",
          "name": "newOwner",
          "type": "address"
        }
      ],
      "name": "OwnershipTransferred",
      "type": "event"
    },
    {
      "anonymous": false,
      "inputs": [
        {
          "indexed": true,
          "internalType": "address",
          "name": "from",
          "type": "address"
        },
        {
          "indexed": true,
          "internalType": "address",
          "name": "to",
          "type": "address"
        },
        {
          "indexed": true,
          "internalType": "uint256",
          "name": "tokenId",
          "type": "uint256"
        }
      ],
      "name": "Transfer",
      "type": "event"
    },
    {
      "inputs": [],
      "name": "accessControl",
      "outputs": [
        {
          "internalType": "address",
          "name": "",
          "type": "address"
        }
      ],
      "stateMutability": "view",
      "type": "function"
    },
    {
      "inputs": [
        {
          "internalType": "address",
          "name": "to",
          "type": "address"
        },
        {
          "internalType": "uint256",
          "name": "tokenId",
          "type": "uint256"
        }
      ],
      "name": "approve",
      "outputs": [],
      "stateMutability": "nonpayable",
      "type": "function"
    },
    {
      "inputs": [
        {
          "internalType": "address",
          "name": "owner",
          "type": "address"
        }
      ],
      "name": "balanceOf",
      "outputs": [
        {
          "internalType": "uint256",
          "name": "",
          "type": "uint256"
        }
      ],
      "stateMutability": "view",
      "type": "function"
    },
    {
      "inputs": [
        {
          "internalType": "uint256",
          "name": "tokenId",
          "type": "uint256"
        }
      ],
      "name": "getApproved",
      "outputs": [
        {
          "internalType": "address",
          "name": "",
          "type": "address"
        }
      ],
      "stateMutability": "view",
      "type": "function"
    },
    {
      "inputs": [
        {
          "internalType": "address",
          "name": "owner",
          "type": "address"
        },
        {
          "internalType": "address",
          "name": "operator",
          "type": "address"
        }
      ],
      "name": "isApprovedForAll",
      "outputs": [
        {
          "internalType": "bool",
          "name": "",
          "type": "bool"
        }
      ],
      "stateMutability": "view",
      "type": "function"
    },
    {
      "inputs": [],
      "name": "marketplace",
      "outputs": [
        {
          "internalType": "address",
          "name": "",
          "type": "address"
        }
      ],
      "stateMutability": "view",
      "type": "function"
    },
    {
      "inputs": [
        {
          "internalType": "address",
          "name": "to",
          "type": "address"
        },
        {
          "internalType": "string",
          "name": "metadataURI",
          "type": "string"
        },
        {
          "internalType": "enum AlbashNFT.AssetType",
          "name": "assetType",
          "type": "uint8"
        },
        {
          "internalType": "uint256",
          "name": "listingId",
          "type": "uint256"
        }
      ],
      "name": "mintNFT",
      "outputs": [
        {
          "internalType": "uint256",
          "name": "",
          "type": "uint256"
        }
      ],
      "stateMutability": "nonpayable",
      "type": "function"
    },
    {
      "inputs": [],
      "name": "name",
      "outputs": [
        {
          "internalType": "string",
          "name": "",
          "type": "string"
        }
      ],
      "stateMutability": "view",
      "type": "function"
    },
    {
      "inputs": [],
      "name": "owner",
      "outputs": [
        {
          "internalType": "address",
          "name": "",
          "type": "address"
        }
      ],
      "stateMutability": "view",
      "type": "function"
    },
    {
      "inputs": [
        {
          "internalType": "uint256",
          "name": "tokenId",
          "type": "uint256"
        }
      ],
      "name": "ownerOf",
      "outputs": [
        {
          "internalType": "address",
          "name": "",
          "type": "address"
        }
      ],
      "stateMutability": "view",
      "type": "function"
    },
    {
      "inputs": [],
      "name": "renounceOwnership",
      "outputs": [],
      "stateMutability": "nonpayable",
      "type": "function"
    },
    {
      "inputs": [
        {
          "internalType": "address",
          "name": "from",
          "type": "address"
        },
        {
          "internalType": "address",
          "name": "to",
          "type": "address"
        },
        {
          "internalType": "uint256",
          "name": "tokenId",
          "type": "uint256"
        }
      ],
      "name": "safeTransferFrom",
      "outputs": [],
      "stateMutability": "nonpayable",
      "type": "function"
    },
    {
      "inputs": [
        {
          "internalType": "address",
          "name": "from",
          "type": "address"
        },
        {
          "internalType": "address",
          "name": "to",
          "type": "address"
        },
        {
          "internalType": "uint256",
          "name": "tokenId",
          "type": "uint256"
        },
        {
          "internalType": "bytes",
          "name": "data",
          "type": "bytes"
        }
      ],
      "name": "safeTransferFrom",
      "outputs": [],
      "stateMutability": "nonpayable",
      "type": "function"
    },
    {
      "inputs": [
        {
          "internalType": "address",
          "name": "_accessControl",
          "type": "address"
        }
      ],
      "name": "setAccessControl",
      "outputs": [],
      "stateMutability": "nonpayable",
      "type": "function"
    },
    {
      "inputs": [
        {
          "internalType": "address",
          "name": "operator",
          "type": "address"
        },
        {
          "internalType": "bool",
          "name": "approved",
          "type": "bool"
        }
      ],
      "name": "setApprovalForAll",
      "outputs": [],
      "stateMutability": "nonpayable",
      "type": "function"
    },
    {
      "inputs": [
        {
          "internalType": "address",
          "name": "_marketplace",
          "type": "address"
        }
      ],
      "name": "setMarketplace",
      "outputs": [],
      "stateMutability": "nonpayable",
      "type": "function"
    },
    {
      "inputs": [
        {
          "internalType": "bytes4",
          "name": "interfaceId",
          "type": "bytes4"
        }
      ],
      "name": "supportsInterface",
      "outputs": [
        {
          "internalType": "bool",
          "name": "",
          "type": "bool"
        }
      ],
      "stateMutability": "view",
      "type": "function"
    },
    {
      "inputs": [],
      "name": "symbol",
      "outputs": [
        {
          "internalType": "string",
          "name": "",
          "type": "string"
        }
      ],
      "stateMutability": "view",
      "type": "function"
    },
    {
      "inputs": [
        {
          "internalType": "uint256",
          "name": "",
          "type": "uint256"
        }
      ],
      "name": "tokenMetadata",
      "outputs": [
        {
          "internalType": "enum AlbashNFT.AssetType",
          "name": "assetType",
          "type": "uint8"
        },
        {
          "internalType": "uint256",
          "name": "listingId",
          "type": "uint256"
        },
        {
          "internalType": "address",
          "name": "creator",
          "type": "address"
        },
        {
          "internalType": "uint256",
          "name": "createdAt",
          "type": "uint256"
        },
        {
          "internalType": "string",
          "name": "originalMetadataURI",
          "type": "string"
        }
      ],
      "stateMutability": "view",
      "type": "function"
    },
    {
      "inputs": [
        {
          "internalType": "uint256",
          "name": "tokenId",
          "type": "uint256"
        }
      ],
      "name": "tokenURI",
      "outputs": [
        {
          "internalType": "string",
          "name": "",
          "type": "string"
        }
      ],
      "stateMutability": "view",
      "type": "function"
    },
    {
      "inputs": [],
      "name": "totalSupply",
      "outputs": [
        {
          "internalType": "uint256",
          "name": "",
          "type": "uint256"
        }
      ],
      "stateMutability": "view",
      "type": "function"
    },
    {
      "inputs": [
        {
          "internalType": "address",
          "name": "from",
          "type": "address"
        },
        {
          "internalType": "address",
          "name": "to",
          "type": "address"
        },
        {
          "internalType": "uint256",
          "name": "tokenId",
          "type": "uint256"
        }
      ],
      "name": "transferFrom",
      "outputs": [],
      "stateMutability": "nonpayable",
      "type": "function"
    },
    {
      "inputs": [
        {
          "internalType": "address",
          "name": "newOwner",
          "type": "address"
        }
      ],
      "name": "transferOwnership",
      "outputs": [],
      "stateMutability": "nonpayable",
      "type": "function"
    }
  ],
  "bytecode": "0x60806040523480156200001157600080fd5b506040516200202238038062002022833981016040819052620000349162000131565b6040518060400160405280600c81526020016b105b18985cda08105cdcd95d60a21b81525060405180604001604052806006815260200165082988482a6960d31b815250816000908162000089919062000208565b50600162000098828262000208565b505050620000b5620000af620000db60201b60201c565b620000df565b600a80546001600160a01b0319166001600160a01b0392909216919091179055620002d4565b3390565b600780546001600160a01b038381166001600160a01b0319831681179093556040519116919082907f8be0079c531659141344cd1fd0a4f28419497f9722a3daafe3b4186f6b6457e090600090a35050565b6000602082840312156200014457600080fd5b81516001600160a01b03811681146200015c57600080fd5b9392505050565b634e487b7160e01b600052604160045260246000fd5b600181811c908216806200018e57607f821691505b602082108103620001af57634e487b7160e01b600052602260045260246000fd5b50919050565b601f8211156200020357600081815260208120601f850160051c81016020861015620001de5750805b601f850160051c820191505b81811015620001ff57828155600101620001ea565b5050505b505050565b81516001600160401b0381111562000224576200022462000163565b6200023c8162000235845462000179565b84620001b5565b602080601f8311600181146200027457600084156200025b5750858301515b600019600386901b1c1916600185901b178555620001ff565b600085815260208120601f198616915b82811015620002a55788860151825594840194600190910190840162000284565b5085821015620002c45787850151600019600388901b60f8161c191681555b5050505050600190811b01905550565b611d3e80620002e46000396000f3fe608060405234801561001057600080fd5b506004361061014d5760003560e01c806370a08231116100c3578063a22cb4651161007c578063a22cb465146102c2578063abc8c7af146102d5578063b88d4fde146102e8578063c87b56dd146102fb578063e985e9c51461030e578063f2fde38b1461034a57600080fd5b806370a0823114610268578063715018a61461027b57806373ad6c2d146102835780638da5cb5b146102965780639046ef55146102a757806395d89b41146102ba57600080fd5b806318160ddd1161011557806318160ddd146101e257806319129e5a146101f857806323b872dd1461020b57806342842e0e1461021e5780636352211e146102315780636914db601461024457600080fd5b806301ffc9a71461015257806306fdde031461017a578063081812fc1461018f578063095ea7b3146101ba57806313007d55146101cf575b600080fd5b610165610160366004611660565b61035d565b60405190151581526020015b60405180910390f35b610182610388565b60405161017191906116cd565b6101a261019d3660046116e0565b61041a565b6040516001600160a01b039091168152602001610171565b6101cd6101c8366004611715565b610441565b005b600a546101a2906001600160a01b031681565b6101ea61055b565b604051908152602001610171565b6101cd61020636600461173f565b61056b565b6101cd61021936600461175a565b6105eb565b6101cd61022c36600461175a565b61061c565b6101a261023f3660046116e0565b610637565b6102576102523660046116e0565b610697565b6040516101719594939291906117ce565b6101ea61027636600461173f565b61075e565b6101cd6107e4565b6101cd61029136600461173f565b6107f8565b6007546001600160a01b03166101a2565b6101ea6102b536600461189f565b610878565b610182610a47565b6101cd6102d036600461191f565b610a56565b6009546101a2906001600160a01b031681565b6101cd6102f636600461195b565b610a65565b6101826103093660046116e0565b610a9d565b61016561031c3660046119d7565b6001600160a01b03918216600090815260056020908152604080832093909416825291909152205460ff1690565b6101cd61035836600461173f565b610ba5565b60006001600160e01b03198216632483248360e11b1480610382575061038282610c1e565b92915050565b60606000805461039790611a0a565b80601f01602080910402602001604051908101604052809291908181526020018280546103c390611a0a565b80156104105780601f106103e557610100808354040283529160200191610410565b820191906000526020600020905b8154815290600101906020018083116103f357829003601f168201915b5050505050905090565b600061042582610c6e565b506000908152600460205260409020546001600160a01b031690565b600061044c82610637565b9050806001600160a01b0316836001600160a01b0316036104be5760405162461bcd60e51b815260206004820152602160248201527f4552433732313a20617070726f76616c20746f2063757272656e74206f776e656044820152603960f91b60648201526084015b60405180910390fd5b336001600160a01b03821614806104da57506104da813361031c565b61054c5760405162461bcd60e51b815260206004820152603d60248201527f4552433732313a20617070726f76652063616c6c6572206973206e6f7420746f60448201527f6b656e206f776e6572206f7220617070726f76656420666f7220616c6c00000060648201526084016104b5565b6105568383610ccd565b505050565b600061056660085490565b905090565b610573610d3b565b6001600160a01b0381166105995760405162461bcd60e51b81526004016104b590611a44565b600a80546001600160a01b038381166001600160a01b0319831681179093556040519116919082907f9b23e0b56e0fa9dfc55aa9a97cf8760b83af13408866808f1f7ffd8f26e9062b90600090a35050565b6105f53382610d95565b6106115760405162461bcd60e51b81526004016104b590611a6d565b610556838383610e13565b61055683838360405180602001604052806000815250610a65565b6000818152600260205260408120546001600160a01b0316806103825760405162461bcd60e51b8152602060048201526018602482015277115490cdcc8c4e881a5b9d985b1a59081d1bdad95b88125160421b60448201526064016104b5565b600b602052600090815260409020805460018201546002830154600384015460048501805460ff9095169593946001600160a01b039093169391926106db90611a0a565b80601f016020809104026020016040519081016040528092919081815260200182805461070790611a0a565b80156107545780601f1061072957610100808354040283529160200191610754565b820191906000526020600020905b81548152906001019060200180831161073757829003601f168201915b5050505050905085565b60006001600160a01b0382166107c85760405162461bcd60e51b815260206004820152602960248201527f4552433732313a2061646472657373207a65726f206973206e6f7420612076616044820152683634b21037bbb732b960b91b60648201526084016104b5565b506001600160a01b031660009081526003602052604090205490565b6107ec610d3b565b6107f66000610f77565b565b610800610d3b565b6001600160a01b0381166108265760405162461bcd60e51b81526004016104b590611a44565b600980546001600160a01b038381166001600160a01b0319831681179093556040519116919082907fc3e7368ef0a668941a4115b651a9c4f3fa3a13cc6ea105bb91e12bcaa932293c90600090a35050565b6009546000906001600160a01b031633148061089e57506007546001600160a01b031633145b6108db5760405162461bcd60e51b815260206004820152600e60248201526d139bdd08185d5d1a1bdc9a5e995960921b60448201526064016104b5565b6001600160a01b0385166109015760405162461bcd60e51b81526004016104b590611a44565b61090f600880546001019055565b600061091a60085490565b90506109268682610fc9565b6109308186610fe3565b6040518060a0016040528085600681111561094d5761094d611796565b815260208082018690526001600160a01b03891660408084019190915242606084015260809092018890526000848152600b9091522081518154829060ff191660018360068111156109a1576109a1611796565b02179055506020820151600182015560408201516002820180546001600160a01b0319166001600160a01b0390921691909117905560608201516003820155608082015160048201906109f49082611b08565b50905050856001600160a01b0316817fb7b37e2492d607bae7599a39d53c1892b28fb0c4ecbc83938cc737c001cf74948688604051610a34929190611bc8565b60405180910390a390505b949350505050565b60606001805461039790611a0a565b610a613383836110ae565b5050565b610a6f3383610d95565b610a8b5760405162461bcd60e51b81526004016104b590611a6d565b610a978484848461117c565b50505050565b6060610aa882610c6e565b60008281526006602052604081208054610ac190611a0a565b80601f0160208091040260200160405190810160405280929190818152602001828054610aed90611a0a565b8015610b3a5780601f10610b0f57610100808354040283529160200191610b3a565b820191906000526020600020905b815481529060010190602001808311610b1d57829003601f168201915b505050505090506000610b5860408051602081019091526000815290565b90508051600003610b6a575092915050565b815115610b9c578082604051602001610b84929190611be8565b60405160208183030381529060405292505050919050565b610a3f846111af565b610bad610d3b565b6001600160a01b038116610c125760405162461bcd60e51b815260206004820152602660248201527f4f776e61626c653a206e6577206f776e657220697320746865207a65726f206160448201526564647265737360d01b60648201526084016104b5565b610c1b81610f77565b50565b60006001600160e01b031982166380ac58cd60e01b1480610c4f57506001600160e01b03198216635b5e139f60e01b145b8061038257506301ffc9a760e01b6001600160e01b0319831614610382565b6000818152600260205260409020546001600160a01b0316610c1b5760405162461bcd60e51b8152602060048201526018602482015277115490cdcc8c4e881a5b9d985b1a59081d1bdad95b88125160421b60448201526064016104b5565b600081815260046020526040902080546001600160a01b0319166001600160a01b0384169081179091558190610d0282610637565b6001600160a01b03167f8c5be1e5ebec7d5bd14f71427d1e84f3dd0314c0f7b2291e5b200ac8c7c3b92560405160405180910390a45050565b6007546001600160a01b031633146107f65760405162461bcd60e51b815260206004820181905260248201527f4f776e61626c653a2063616c6c6572206973206e6f7420746865206f776e657260448201526064016104b5565b600080610da183610637565b9050806001600160a01b0316846001600160a01b03161480610de857506001600160a01b0380821660009081526005602090815260408083209388168352929052205460ff165b80610a3f5750836001600160a01b0316610e018461041a565b6001600160a01b031614949350505050565b826001600160a01b0316610e2682610637565b6001600160a01b031614610e4c5760405162461bcd60e51b81526004016104b590611c17565b6001600160a01b038216610eae5760405162461bcd60e51b8152602060048201526024808201527f4552433732313a207472616e7366657220746f20746865207a65726f206164646044820152637265737360e01b60648201526084016104b5565b826001600160a01b0316610ec182610637565b6001600160a01b031614610ee75760405162461bcd60e51b81526004016104b590611c17565b600081815260046020908152604080832080546001600160a01b03199081169091556001600160a01b0387811680865260038552838620805460001901905590871680865283862080546001019055868652600290945282852080549092168417909155905184937fddf252ad1be2c89b69c2b068fc378daa952ba7f163c4a11628f55a4df523b3ef91a4505050565b600780546001600160a01b038381166001600160a01b0319831681179093556040519116919082907f8be0079c531659141344cd1fd0a4f28419497f9722a3daafe3b4186f6b6457e090600090a35050565b610a61828260405180602001604052806000815250611223565b6000828152600260205260409020546001600160a01b031661105e5760405162461bcd60e51b815260206004820152602e60248201527f45524337323155524953746f726167653a2055524920736574206f66206e6f6e60448201526d32bc34b9ba32b73a103a37b5b2b760911b60648201526084016104b5565b60008281526006602052604090206110768282611b08565b506040518281527ff8e1a15aba9398e019f0b49df1a4fde98ee17ae345cb5f6b5e2c27f5033e8ce79060200160405180910390a15050565b816001600160a01b0316836001600160a01b03160361110f5760405162461bcd60e51b815260206004820152601960248201527f4552433732313a20617070726f766520746f2063616c6c65720000000000000060448201526064016104b5565b6001600160a01b03838116600081815260056020908152604080832094871680845294825291829020805460ff191686151590811790915591519182527f17307eab39ab6107e8899845ad3d59bd9653f200f220920489ca2b5937696c31910160405180910390a3505050565b611187848484610e13565b61119384848484611256565b610a975760405162461bcd60e51b81526004016104b590611c5c565b60606111ba82610c6e565b60006111d160408051602081019091526000815290565b905060008151116111f1576040518060200160405280600081525061121c565b806111fb84611354565b60405160200161120c929190611be8565b6040516020818303038152906040525b9392505050565b61122d83836113e7565b61123a6000848484611256565b6105565760405162461bcd60e51b81526004016104b590611c5c565b60006001600160a01b0384163b1561134c57604051630a85bd0160e11b81526001600160a01b0385169063150b7a029061129a903390899088908890600401611cae565b6020604051808303816000875af19250505080156112d5575060408051601f3d908101601f191682019092526112d291810190611ceb565b60015b611332573d808015611303576040519150601f19603f3d011682016040523d82523d6000602084013e611308565b606091505b50805160000361132a5760405162461bcd60e51b81526004016104b590611c5c565b805181602001fd5b6001600160e01b031916630a85bd0160e11b149050610a3f565b506001610a3f565b6060600061136183611572565b600101905060008167ffffffffffffffff81111561138157611381611813565b6040519080825280601f01601f1916602001820160405280156113ab576020820181803683370190505b5090508181016020015b600019016f181899199a1a9b1b9c1cb0b131b232b360811b600a86061a8153600a85049450846113b557509392505050565b6001600160a01b03821661143d5760405162461bcd60e51b815260206004820181905260248201527f4552433732313a206d696e7420746f20746865207a65726f206164647265737360448201526064016104b5565b6000818152600260205260409020546001600160a01b0316156114a25760405162461bcd60e51b815260206004820152601c60248201527f4552433732313a20746f6b656e20616c7265616479206d696e7465640000000060448201526064016104b5565b6000818152600260205260409020546001600160a01b0316156115075760405162461bcd60e51b815260206004820152601c60248201527f4552433732313a20746f6b656e20616c7265616479206d696e7465640000000060448201526064016104b5565b6001600160a01b038216600081815260036020908152604080832080546001019055848352600290915280822080546001600160a01b0319168417905551839291907fddf252ad1be2c89b69c2b068fc378daa952ba7f163c4a11628f55a4df523b3ef908290a45050565b60008072184f03e93ff9f4daa797ed6e38ed64bf6a1f0160401b83106115b15772184f03e93ff9f4daa797ed6e38ed64bf6a1f0160401b830492506040015b6d04ee2d6d415b85acef810000000083106115dd576d04ee2d6d415b85acef8100000000830492506020015b662386f26fc1000083106115fb57662386f26fc10000830492506010015b6305f5e1008310611613576305f5e100830492506008015b612710831061162757612710830492506004015b60648310611639576064830492506002015b600a83106103825760010192915050565b6001600160e01b031981168114610c1b57600080fd5b60006020828403121561167257600080fd5b813561121c8161164a565b60005b83811015611698578181015183820152602001611680565b50506000910152565b600081518084526116b981602086016020860161167d565b601f01601f19169290920160200192915050565b60208152600061121c60208301846116a1565b6000602082840312156116f257600080fd5b5035919050565b80356001600160a01b038116811461171057600080fd5b919050565b6000806040838503121561172857600080fd5b611731836116f9565b946020939093013593505050565b60006020828403121561175157600080fd5b61121c826116f9565b60008060006060848603121561176f57600080fd5b611778846116f9565b9250611786602085016116f9565b9150604084013590509250925092565b634e487b7160e01b600052602160045260246000fd5b600781106117ca57634e487b7160e01b600052602160045260246000fd5b9052565b6117d881876117ac565b84602082015260018060a01b038416604082015282606082015260a06080820152600061180860a08301846116a1565b979650505050505050565b634e487b7160e01b600052604160045260246000fd5b600067ffffffffffffffff8084111561184457611844611813565b604051601f8501601f19908116603f0116810190828211818310171561186c5761186c611813565b8160405280935085815286868601111561188557600080fd5b858560208301376000602087830101525050509392505050565b600080600080608085870312156118b557600080fd5b6118be856116f9565b9350602085013567ffffffffffffffff8111156118da57600080fd5b8501601f810187136118eb57600080fd5b6118fa87823560208401611829565b93505060408501356007811061190f57600080fd5b9396929550929360600135925050565b6000806040838503121561193257600080fd5b61193b836116f9565b91506020830135801515811461195057600080fd5b809150509250929050565b6000806000806080858703121561197157600080fd5b61197a856116f9565b9350611988602086016116f9565b925060408501359150606085013567ffffffffffffffff8111156119ab57600080fd5b8501601f810187136119bc57600080fd5b6119cb87823560208401611829565b91505092959194509250565b600080604083850312156119ea57600080fd5b6119f3836116f9565b9150611a01602084016116f9565b90509250929050565b600181811c90821680611a1e57607f821691505b602082108103611a3e57634e487b7160e01b600052602260045260246000fd5b50919050565b6020808252600f908201526e496e76616c6964206164647265737360881b604082015260600190565b6020808252602d908201527f4552433732313a2063616c6c6572206973206e6f7420746f6b656e206f776e6560408201526c1c881bdc88185c1c1c9bdd9959609a1b606082015260800190565b601f82111561055657600081815260208120601f850160051c81016020861015611ae15750805b601f850160051c820191505b81811015611b0057828155600101611aed565b505050505050565b815167ffffffffffffffff811115611b2257611b22611813565b611b3681611b308454611a0a565b84611aba565b602080601f831160018114611b6b5760008415611b535750858301515b600019600386901b1c1916600185901b178555611b00565b600085815260208120601f198616915b82811015611b9a57888601518255948401946001909101908401611b7b565b5085821015611bb85787850151600019600388901b60f8161c191681555b5050505050600190811b01905550565b611bd281846117ac565b604060208201526000610a3f60408301846116a1565b60008351611bfa81846020880161167d565b835190830190611c0e81836020880161167d565b01949350505050565b60208082526025908201527f4552433732313a207472616e736665722066726f6d20696e636f72726563742060408201526437bbb732b960d91b606082015260800190565b60208082526032908201527f4552433732313a207472616e7366657220746f206e6f6e20455243373231526560408201527131b2b4bb32b91034b6b83632b6b2b73a32b960711b606082015260800190565b6001600160a01b0385811682528416602082015260408101839052608060608201819052600090611ce1908301846116a1565b9695505050505050565b600060208284031215611cfd57600080fd5b815161121c8161164a56fea26469706673582212207389b54b63482a1efae0015edc30a35ec65eff13841cd3826b081abc275b821e64736f6c63430008140033",
  "linkReferences": {},
  "deployedLinkReferences": {}
}