{"contracts/AlbashMarketplace.sol":{"AlbashMarketplace":{"abi":[{"inputs":[{"internalType":"address","name":"_accessControl","type":"address"},{"internalType":"address","name":"_nftContract","type":"address"}],"stateMutability":"nonpayable","type":"constructor"},{"anonymous":false,"inputs":[{"indexed":true,"internalType":"uint256","name":"listingId","type":"uint256"},{"indexed":true,"internalType":"uint256","name":"tokenId","type":"uint256"},{"indexed":true,"internalType":"address","name":"seller","type":"address"},{"indexed":false,"internalType":"uint256","name":"price","type":"uint256"}],"name":"Listed","type":"event"},{"anonymous":false,"inputs":[{"indexed":true,"internalType":"uint256","name":"listingId","type":"uint256"}],"name":"ListingCancelled","type":"event"},{"anonymous":false,"inputs":[{"indexed":true,"internalType":"uint256","name":"listingId","type":"uint256"},{"indexed":false,"internalType":"uint256","name":"newPrice","type":"uint256"}],"name":"ListingUpdated","type":"event"},{"anonymous":false,"inputs":[{"indexed":false,"internalType":"uint256","name":"oldFee","type":"uint256"},{"indexed":false,"internalType":"uint256","name":"newFee","type":"uint256"}],"name":"PlatformFeeUpdated","type":"event"},{"anonymous":false,"inputs":[{"indexed":true,"internalType":"uint256","name":"listingId","type":"uint256"},{"indexed":true,"internalType":"uint256","name":"tokenId","type":"uint256"},{"indexed":true,"internalType":"address","name":"buyer","type":"address"},{"indexed":false,"internalType":"uint256","name":"price","type":"uint256"}],"name":"Sold","type":"event"},{"inputs":[],"name":"accessControl","outputs":[{"internalType":"contract AlbashAccessControl","name":"","type":"address"}],"stateMutability":"view","type":"function"},{"inputs":[],"name":"admin","outputs":[{"internalType":"address","name":"","type":"address"}],"stateMutability":"view","type":"function"},{"inputs":[{"internalType":"uint256","name":"listingId","type":"uint256"}],"name":"buyItem","outputs":[],"stateMutability":"payable","type":"function"},{"inputs":[{"internalType":"uint256","name":"listingId","type":"uint256"}],"name":"cancelListing","outputs":[],"stateMutability":"nonpayable","type":"function"},{"inputs":[{"internalType":"uint256","name":"tokenId","type":"uint256"},{"internalType":"uint256","name":"price","type":"uint256"}],"name":"listItem","outputs":[],"stateMutability":"nonpayable","type":"function"},{"inputs":[],"name":"listingCounter","outputs":[{"internalType":"uint256","name":"","type":"uint256"}],"stateMutability":"view","type":"function"},{"inputs":[{"internalType":"uint256","name":"","type":"uint256"}],"name":"listings","outputs":[{"internalType":"address","name":"seller","type":"address"},{"internalType":"uint256","name":"price","type":"uint256"},{"internalType":"bool","name":"active","type":"bool"},{"internalType":"uint256","name":"tokenId","type":"uint256"},{"internalType":"uint256","name":"createdAt","type":"uint256"}],"stateMutability":"view","type":"function"},{"inputs":[],"name":"nftContract","outputs":[{"internalType":"contract AlbashNFT","name":"","type":"address"}],"stateMutability":"view","type":"function"},{"inputs":[],"name":"platformFee","outputs":[{"internalType":"uint256","name":"","type":"uint256"}],"stateMutability":"view","type":"function"},{"inputs":[{"internalType":"uint256","name":"_fee","type":"uint256"}],"name":"setPlatformFee","outputs":[],"stateMutability":"nonpayable","type":"function"},{"inputs":[{"internalType":"uint256","name":"","type":"uint256"}],"name":"tokenToListing","outputs":[{"internalType":"uint256","name":"","type":"uint256"}],"stateMutability":"view","type":"function"},{"inputs":[{"internalType":"uint256","name":"listingId","type":"uint256"},{"internalType":"uint256","name":"newPrice","type":"uint256"}],"name":"updateListingPrice","outputs":[],"stateMutability":"nonpayable","type":"function"},{"inputs":[],"name":"withdrawFees","outputs":[],"stateMutability":"nonpayable","type":"function"}],"evm":{"bytecode":{"linkReferences":{},"object":"6080604052600560035534801561001557600080fd5b50604051610d8f380380610d8f8339810160408190526100349161008c565b600280546001600160a01b03199081163317909155600080546001600160a01b03948516908316179055600180549290931691161790556100bf565b80516001600160a01b038116811461008757600080fd5b919050565b6000806040838503121561009f57600080fd5b6100a883610070565b91506100b660208401610070565b90509250929050565b610cc1806100ce6000396000f3fe6080604052600436106100c25760003560e01c8063883efa671161007f578063de74e57b11610059578063de74e57b146101f5578063e7fb74c714610286578063ea7eaec614610299578063f851a440146102c657600080fd5b8063883efa6714610195578063c4604943146101b5578063d56d229d146101d557600080fd5b806312e8e2c3146100c757806313007d55146100e957806326232a2e14610126578063305a67a81461014a578063476343ee1461016a5780636c2c9c7d1461017f575b600080fd5b3480156100d357600080fd5b506100e76100e2366004610b51565b6102e6565b005b3480156100f557600080fd5b50600054610109906001600160a01b031681565b6040516001600160a01b0390911681526020015b60405180910390f35b34801561013257600080fd5b5061013c60035481565b60405190815260200161011d565b34801561015657600080fd5b506100e7610165366004610b51565b6103bf565b34801561017657600080fd5b506100e7610472565b34801561018b57600080fd5b5061013c60065481565b3480156101a157600080fd5b506100e76101b0366004610b6a565b6104f4565b3480156101c157600080fd5b506100e76101d0366004610b6a565b6107ea565b3480156101e157600080fd5b50600154610109906001600160a01b031681565b34801561020157600080fd5b5061024e610210366004610b51565b6004602081905260009182526040909120805460018201546002830154600384015493909401546001600160a01b0390921693909260ff9091169185565b604080516001600160a01b0390961686526020860194909452911515928401929092526060830191909152608082015260a00161011d565b6100e7610294366004610b51565b6108f3565b3480156102a557600080fd5b5061013c6102b4366004610b51565b60056020526000908152604090205481565b3480156102d257600080fd5b50600254610109906001600160a01b031681565b6002546001600160a01b031633146103315760405162461bcd60e51b81526020600482015260096024820152682737ba1030b236b4b760b91b60448201526064015b60405180910390fd5b600a81111561037a5760405162461bcd60e51b81526020600482015260156024820152744665652063616e6e6f74206578636565642031302560581b6044820152606401610328565b600380549082905560408051828152602081018490527fd347e206f25a89b917fc9482f1a2d294d749baa4dc9bde7fb495ee11fe491643910160405180910390a15050565b6000818152600460205260409020600281015460ff166103f15760405162461bcd60e51b815260040161032890610b8c565b80546001600160a01b031633146104375760405162461bcd60e51b815260206004820152600a6024820152692737ba1039b2b63632b960b11b6044820152606401610328565b60028101805460ff1916905560405182907f411aee90354c51b1b04cd563fcab2617142a9d50da19232d888547c8a1b7fd8a90600090a25050565b6002546001600160a01b031633146104b85760405162461bcd60e51b81526020600482015260096024820152682737ba1030b236b4b760b91b6044820152606401610328565b6002546040516001600160a01b03909116904780156108fc02916000818181858888f193505050501580156104f1573d6000803e3d6000fd5b50565b60005460405163b9209e3360e01b81523360048201526001600160a01b039091169063b9209e3390602401602060405180830381865afa15801561053c573d6000803e3d6000fd5b505050506040513d601f19601f820116820180604052508101906105609190610bb8565b6105a05760405162461bcd60e51b8152602060048201526011602482015270155cd95c881b9bdd081d995c9a599a5959607a1b6044820152606401610328565b6001546040516331a9108f60e11b81526004810184905233916001600160a01b031690636352211e90602401602060405180830381865afa1580156105e9573d6000803e3d6000fd5b505050506040513d601f19601f8201168201806040525081019061060d9190610be1565b6001600160a01b0316146106555760405162461bcd60e51b815260206004820152600f60248201526e2737ba103a37b5b2b71037bbb732b960891b6044820152606401610328565b600081116106a55760405162461bcd60e51b815260206004820152601c60248201527f5072696365206d7573742062652067726561746572207468616e2030000000006044820152606401610328565b6000828152600560209081526040808320548352600490915290206002015460ff16156107055760405162461bcd60e51b815260206004820152600e60248201526d105b1c9958591e481b1a5cdd195960921b6044820152606401610328565b6006805490600061071583610c20565b90915550506040805160a081018252338082526020808301858152600184860181815260608601898152426080880190815260068054600090815260048089528b82209a518b546001600160a01b0319166001600160a01b03909116178b559651958a0195909555925160028901805460ff191691151591909117905590516003880155519590920194909455548684526005825292849020839055925184815290928592917fcf4ebbb01b0166b4c3bb06d2edd4860d56a19f40c14454fdeb07220bf1752924910160405180910390a45050565b6000828152600460205260409020600281015460ff1661081c5760405162461bcd60e51b815260040161032890610b8c565b80546001600160a01b031633146108625760405162461bcd60e51b815260206004820152600a6024820152692737ba1039b2b63632b960b11b6044820152606401610328565b600082116108b25760405162461bcd60e51b815260206004820152601c60248201527f5072696365206d7573742062652067726561746572207468616e2030000000006044820152606401610328565b6001810182905560405182815283907f66bcde9f7aec9b81719a4fdec54cbafbf6c834d1f2f989d9cd2134dab8d0c0de9060200160405180910390a2505050565b6000818152600460205260409020600281015460ff166109255760405162461bcd60e51b815260040161032890610b8c565b80600101543410156109705760405162461bcd60e51b8152602060048201526014602482015273125b9cdd59999a58da595b9d081c185e5b595b9d60621b6044820152606401610328565b80546001600160a01b031633036109c25760405162461bcd60e51b815260206004820152601660248201527543616e6e6f7420627579206f776e206c697374696e6760501b6044820152606401610328565b60028101805460ff1916905560035460018201546000916064916109e69190610c39565b6109f09190610c56565b90506000818360010154610a049190610c78565b600154845460038601546040516323b872dd60e01b81526001600160a01b039283166004820152336024820152604481019190915292935016906323b872dd90606401600060405180830381600087803b158015610a6157600080fd5b505af1158015610a75573d6000803e3d6000fd5b505084546040516001600160a01b03909116925083156108fc02915083906000818181858888f19350505050158015610ab2573d6000803e3d6000fd5b508260010154341115610afe57600183015433906108fc90610ad49034610c78565b6040518115909202916000818181858888f19350505050158015610afc573d6000803e3d6000fd5b505b336001600160a01b03168360030154857f8438a66ac04db2e2324d5927beca96c400ee09b811c5da2b153d4fa7412628e58660010154604051610b4391815260200190565b60405180910390a450505050565b600060208284031215610b6357600080fd5b5035919050565b60008060408385031215610b7d57600080fd5b50508035926020909101359150565b6020808252601290820152714c697374696e67206e6f742061637469766560701b604082015260600190565b600060208284031215610bca57600080fd5b81518015158114610bda57600080fd5b9392505050565b600060208284031215610bf357600080fd5b81516001600160a01b0381168114610bda57600080fd5b634e487b7160e01b600052601160045260246000fd5b600060018201610c3257610c32610c0a565b5060010190565b8082028115828204841417610c5057610c50610c0a565b92915050565b600082610c7357634e487b7160e01b600052601260045260246000fd5b500490565b81810381811115610c5057610c50610c0a56fea2646970667358221220fb02557ef6e1984227b57d722929328366f6991f31b961e77b9ffd49b8e3abab64736f6c63430008140033","opcodes":"PUSH1 0x80 PUSH1 0x40 MSTORE PUSH1 0x5 PUSH1 0x3 SSTORE CALLVALUE DUP1 ISZERO PUSH2 0x15 JUMPI PUSH1 0x0 DUP1 REVERT JUMPDEST POP PUSH1 0x40 MLOAD PUSH2 0xD8F CODESIZE SUB DUP1 PUSH2 0xD8F DUP4 CODECOPY DUP2 ADD PUSH1 0x40 DUP2 SWAP1 MSTORE PUSH2 0x34 SWAP2 PUSH2 0x8C JUMP JUMPDEST PUSH1 0x2 DUP1 SLOAD PUSH1 0x1 PUSH1 0x1 PUSH1 0xA0 SHL SUB NOT SWAP1 DUP2 AND CALLER OR SWAP1 SWAP2 SSTORE PUSH1 0x0 DUP1 SLOAD PUSH1 0x1 PUSH1 0x1 PUSH1 0xA0 SHL SUB SWAP5 DUP6 AND SWAP1 DUP4 AND OR SWAP1 SSTORE PUSH1 0x1 DUP1 SLOAD SWAP3 SWAP1 SWAP4 AND SWAP2 AND OR SWAP1 SSTORE PUSH2 0xBF JUMP JUMPDEST DUP1 MLOAD PUSH1 0x1 PUSH1 0x1 PUSH1 0xA0 SHL SUB DUP2 AND DUP2 EQ PUSH2 0x87 JUMPI PUSH1 0x0 DUP1 REVERT JUMPDEST SWAP2 SWAP1 POP JUMP JUMPDEST PUSH1 0x0 DUP1 PUSH1 0x40 DUP4 DUP6 SUB SLT ISZERO PUSH2 0x9F JUMPI PUSH1 0x0 DUP1 REVERT JUMPDEST PUSH2 0xA8 DUP4 PUSH2 0x70 JUMP JUMPDEST SWAP2 POP PUSH2 0xB6 PUSH1 0x20 DUP5 ADD PUSH2 0x70 JUMP JUMPDEST SWAP1 POP SWAP3 POP SWAP3 SWAP1 POP JUMP JUMPDEST PUSH2 0xCC1 DUP1 PUSH2 0xCE PUSH1 0x0 CODECOPY PUSH1 0x0 RETURN INVALID PUSH1 0x80 PUSH1 0x40 MSTORE PUSH1 0x4 CALLDATASIZE LT PUSH2 0xC2 JUMPI PUSH1 0x0 CALLDATALOAD PUSH1 0xE0 SHR DUP1 PUSH4 0x883EFA67 GT PUSH2 0x7F JUMPI DUP1 PUSH4 0xDE74E57B GT PUSH2 0x59 JUMPI DUP1 PUSH4 0xDE74E57B EQ PUSH2 0x1F5 JUMPI DUP1 PUSH4 0xE7FB74C7 EQ PUSH2 0x286 JUMPI DUP1 PUSH4 0xEA7EAEC6 EQ PUSH2 0x299 JUMPI DUP1 PUSH4 0xF851A440 EQ PUSH2 0x2C6 JUMPI PUSH1 0x0 DUP1 REVERT JUMPDEST DUP1 PUSH4 0x883EFA67 EQ PUSH2 0x195 JUMPI DUP1 PUSH4 0xC4604943 EQ PUSH2 0x1B5 JUMPI DUP1 PUSH4 0xD56D229D EQ PUSH2 0x1D5 JUMPI PUSH1 0x0 DUP1 REVERT JUMPDEST DUP1 PUSH4 0x12E8E2C3 EQ PUSH2 0xC7 JUMPI DUP1 PUSH4 0x13007D55 EQ PUSH2 0xE9 JUMPI DUP1 PUSH4 0x26232A2E EQ PUSH2 0x126 JUMPI DUP1 PUSH4 0x305A67A8 EQ PUSH2 0x14A JUMPI DUP1 PUSH4 0x476343EE EQ PUSH2 0x16A JUMPI DUP1 PUSH4 0x6C2C9C7D EQ PUSH2 0x17F JUMPI JUMPDEST PUSH1 0x0 DUP1 REVERT JUMPDEST CALLVALUE DUP1 ISZERO PUSH2 0xD3 JUMPI PUSH1 0x0 DUP1 REVERT JUMPDEST POP PUSH2 0xE7 PUSH2 0xE2 CALLDATASIZE PUSH1 0x4 PUSH2 0xB51 JUMP JUMPDEST PUSH2 0x2E6 JUMP JUMPDEST STOP JUMPDEST CALLVALUE DUP1 ISZERO PUSH2 0xF5 JUMPI PUSH1 0x0 DUP1 REVERT JUMPDEST POP PUSH1 0x0 SLOAD PUSH2 0x109 SWAP1 PUSH1 0x1 PUSH1 0x1 PUSH1 0xA0 SHL SUB AND DUP2 JUMP JUMPDEST PUSH1 0x40 MLOAD PUSH1 0x1 PUSH1 0x1 PUSH1 0xA0 SHL SUB SWAP1 SWAP2 AND DUP2 MSTORE PUSH1 0x20 ADD JUMPDEST PUSH1 0x40 MLOAD DUP1 SWAP2 SUB SWAP1 RETURN JUMPDEST CALLVALUE DUP1 ISZERO PUSH2 0x132 JUMPI PUSH1 0x0 DUP1 REVERT JUMPDEST POP PUSH2 0x13C PUSH1 0x3 SLOAD DUP2 JUMP JUMPDEST PUSH1 0x40 MLOAD SWAP1 DUP2 MSTORE PUSH1 0x20 ADD PUSH2 0x11D JUMP JUMPDEST CALLVALUE DUP1 ISZERO PUSH2 0x156 JUMPI PUSH1 0x0 DUP1 REVERT JUMPDEST POP PUSH2 0xE7 PUSH2 0x165 CALLDATASIZE PUSH1 0x4 PUSH2 0xB51 JUMP JUMPDEST PUSH2 0x3BF JUMP JUMPDEST CALLVALUE DUP1 ISZERO PUSH2 0x176 JUMPI PUSH1 0x0 DUP1 REVERT JUMPDEST POP PUSH2 0xE7 PUSH2 0x472 JUMP JUMPDEST CALLVALUE DUP1 ISZERO PUSH2 0x18B JUMPI PUSH1 0x0 DUP1 REVERT JUMPDEST POP PUSH2 0x13C PUSH1 0x6 SLOAD DUP2 JUMP JUMPDEST CALLVALUE DUP1 ISZERO PUSH2 0x1A1 JUMPI PUSH1 0x0 DUP1 REVERT JUMPDEST POP PUSH2 0xE7 PUSH2 0x1B0 CALLDATASIZE PUSH1 0x4 PUSH2 0xB6A JUMP JUMPDEST PUSH2 0x4F4 JUMP JUMPDEST CALLVALUE DUP1 ISZERO PUSH2 0x1C1 JUMPI PUSH1 0x0 DUP1 REVERT JUMPDEST POP PUSH2 0xE7 PUSH2 0x1D0 CALLDATASIZE PUSH1 0x4 PUSH2 0xB6A JUMP JUMPDEST PUSH2 0x7EA JUMP JUMPDEST CALLVALUE DUP1 ISZERO PUSH2 0x1E1 JUMPI PUSH1 0x0 DUP1 REVERT JUMPDEST POP PUSH1 0x1 SLOAD PUSH2 0x109 SWAP1 PUSH1 0x1 PUSH1 0x1 PUSH1 0xA0 SHL SUB AND DUP2 JUMP JUMPDEST CALLVALUE DUP1 ISZERO PUSH2 0x201 JUMPI PUSH1 0x0 DUP1 REVERT JUMPDEST POP PUSH2 0x24E PUSH2 0x210 CALLDATASIZE PUSH1 0x4 PUSH2 0xB51 JUMP JUMPDEST PUSH1 0x4 PUSH1 0x20 DUP2 SWAP1 MSTORE PUSH1 0x0 SWAP2 DUP3 MSTORE PUSH1 0x40 SWAP1 SWAP2 KECCAK256 DUP1 SLOAD PUSH1 0x1 DUP3 ADD SLOAD PUSH1 0x2 DUP4 ADD SLOAD PUSH1 0x3 DUP5 ADD SLOAD SWAP4 SWAP1 SWAP5 ADD SLOAD PUSH1 0x1 PUSH1 0x1 PUSH1 0xA0 SHL SUB SWAP1 SWAP3 AND SWAP4 SWAP1 SWAP3 PUSH1 0xFF SWAP1 SWAP2 AND SWAP2 DUP6 JUMP JUMPDEST PUSH1 0x40 DUP1 MLOAD PUSH1 0x1 PUSH1 0x1 PUSH1 0xA0 SHL SUB SWAP1 SWAP7 AND DUP7 MSTORE PUSH1 0x20 DUP7 ADD SWAP5 SWAP1 SWAP5 MSTORE SWAP2 ISZERO ISZERO SWAP3 DUP5 ADD SWAP3 SWAP1 SWAP3 MSTORE PUSH1 0x60 DUP4 ADD SWAP2 SWAP1 SWAP2 MSTORE PUSH1 0x80 DUP3 ADD MSTORE PUSH1 0xA0 ADD PUSH2 0x11D JUMP JUMPDEST PUSH2 0xE7 PUSH2 0x294 CALLDATASIZE PUSH1 0x4 PUSH2 0xB51 JUMP JUMPDEST PUSH2 0x8F3 JUMP JUMPDEST CALLVALUE DUP1 ISZERO PUSH2 0x2A5 JUMPI PUSH1 0x0 DUP1 REVERT JUMPDEST POP PUSH2 0x13C PUSH2 0x2B4 CALLDATASIZE PUSH1 0x4 PUSH2 0xB51 JUMP JUMPDEST PUSH1 0x5 PUSH1 0x20 MSTORE PUSH1 0x0 SWAP1 DUP2 MSTORE PUSH1 0x40 SWAP1 KECCAK256 SLOAD DUP2 JUMP JUMPDEST CALLVALUE DUP1 ISZERO PUSH2 0x2D2 JUMPI PUSH1 0x0 DUP1 REVERT JUMPDEST POP PUSH1 0x2 SLOAD PUSH2 0x109 SWAP1 PUSH1 0x1 PUSH1 0x1 PUSH1 0xA0 SHL SUB AND DUP2 JUMP JUMPDEST PUSH1 0x2 SLOAD PUSH1 0x1 PUSH1 0x1 PUSH1 0xA0 SHL SUB AND CALLER EQ PUSH2 0x331 JUMPI PUSH1 0x40 MLOAD PUSH3 0x461BCD PUSH1 0xE5 SHL DUP2 MSTORE PUSH1 0x20 PUSH1 0x4 DUP3 ADD MSTORE PUSH1 0x9 PUSH1 0x24 DUP3 ADD MSTORE PUSH9 0x2737BA1030B236B4B7 PUSH1 0xB9 SHL PUSH1 0x44 DUP3 ADD MSTORE PUSH1 0x64 ADD JUMPDEST PUSH1 0x40 MLOAD DUP1 SWAP2 SUB SWAP1 REVERT JUMPDEST PUSH1 0xA DUP2 GT ISZERO PUSH2 0x37A JUMPI PUSH1 0x40 MLOAD PUSH3 0x461BCD PUSH1 0xE5 SHL DUP2 MSTORE PUSH1 0x20 PUSH1 0x4 DUP3 ADD MSTORE PUSH1 0x15 PUSH1 0x24 DUP3 ADD MSTORE PUSH21 0x4665652063616E6E6F742065786365656420313025 PUSH1 0x58 SHL PUSH1 0x44 DUP3 ADD MSTORE PUSH1 0x64 ADD PUSH2 0x328 JUMP JUMPDEST PUSH1 0x3 DUP1 SLOAD SWAP1 DUP3 SWAP1 SSTORE PUSH1 0x40 DUP1 MLOAD DUP3 DUP2 MSTORE PUSH1 0x20 DUP2 ADD DUP5 SWAP1 MSTORE PUSH32 0xD347E206F25A89B917FC9482F1A2D294D749BAA4DC9BDE7FB495EE11FE491643 SWAP2 ADD PUSH1 0x40 MLOAD DUP1 SWAP2 SUB SWAP1 LOG1 POP POP JUMP JUMPDEST PUSH1 0x0 DUP2 DUP2 MSTORE PUSH1 0x4 PUSH1 0x20 MSTORE PUSH1 0x40 SWAP1 KECCAK256 PUSH1 0x2 DUP2 ADD SLOAD PUSH1 0xFF AND PUSH2 0x3F1 JUMPI PUSH1 0x40 MLOAD PUSH3 0x461BCD PUSH1 0xE5 SHL DUP2 MSTORE PUSH1 0x4 ADD PUSH2 0x328 SWAP1 PUSH2 0xB8C JUMP JUMPDEST DUP1 SLOAD PUSH1 0x1 PUSH1 0x1 PUSH1 0xA0 SHL SUB AND CALLER EQ PUSH2 0x437 JUMPI PUSH1 0x40 MLOAD PUSH3 0x461BCD PUSH1 0xE5 SHL DUP2 MSTORE PUSH1 0x20 PUSH1 0x4 DUP3 ADD MSTORE PUSH1 0xA PUSH1 0x24 DUP3 ADD MSTORE PUSH10 0x2737BA1039B2B63632B9 PUSH1 0xB1 SHL PUSH1 0x44 DUP3 ADD MSTORE PUSH1 0x64 ADD PUSH2 0x328 JUMP JUMPDEST PUSH1 0x2 DUP2 ADD DUP1 SLOAD PUSH1 0xFF NOT AND SWAP1 SSTORE PUSH1 0x40 MLOAD DUP3 SWAP1 PUSH32 0x411AEE90354C51B1B04CD563FCAB2617142A9D50DA19232D888547C8A1B7FD8A SWAP1 PUSH1 0x0 SWAP1 LOG2 POP POP JUMP JUMPDEST PUSH1 0x2 SLOAD PUSH1 0x1 PUSH1 0x1 PUSH1 0xA0 SHL SUB AND CALLER EQ PUSH2 0x4B8 JUMPI PUSH1 0x40 MLOAD PUSH3 0x461BCD PUSH1 0xE5 SHL DUP2 MSTORE PUSH1 0x20 PUSH1 0x4 DUP3 ADD MSTORE PUSH1 0x9 PUSH1 0x24 DUP3 ADD MSTORE PUSH9 0x2737BA1030B236B4B7 PUSH1 0xB9 SHL PUSH1 0x44 DUP3 ADD MSTORE PUSH1 0x64 ADD PUSH2 0x328 JUMP JUMPDEST PUSH1 0x2 SLOAD PUSH1 0x40 MLOAD PUSH1 0x1 PUSH1 0x1 PUSH1 0xA0 SHL SUB SWAP1 SWAP2 AND SWAP1 SELFBALANCE DUP1 ISZERO PUSH2 0x8FC MUL SWAP2 PUSH1 0x0 DUP2 DUP2 DUP2 DUP6 DUP9 DUP9 CALL SWAP4 POP POP POP POP ISZERO DUP1 ISZERO PUSH2 0x4F1 JUMPI RETURNDATASIZE PUSH1 0x0 DUP1 RETURNDATACOPY RETURNDATASIZE PUSH1 0x0 REVERT JUMPDEST POP JUMP JUMPDEST PUSH1 0x0 SLOAD PUSH1 0x40 MLOAD PUSH4 0xB9209E33 PUSH1 0xE0 SHL DUP2 MSTORE CALLER PUSH1 0x4 DUP3 ADD MSTORE PUSH1 0x1 PUSH1 0x1 PUSH1 0xA0 SHL SUB SWAP1 SWAP2 AND SWAP1 PUSH4 0xB9209E33 SWAP1 PUSH1 0x24 ADD PUSH1 0x20 PUSH1 0x40 MLOAD DUP1 DUP4 SUB DUP2 DUP7 GAS STATICCALL ISZERO DUP1 ISZERO PUSH2 0x53C JUMPI RETURNDATASIZE PUSH1 0x0 DUP1 RETURNDATACOPY RETURNDATASIZE PUSH1 0x0 REVERT JUMPDEST POP POP POP POP PUSH1 0x40 MLOAD RETURNDATASIZE PUSH1 0x1F NOT PUSH1 0x1F DUP3 ADD AND DUP3 ADD DUP1 PUSH1 0x40 MSTORE POP DUP2 ADD SWAP1 PUSH2 0x560 SWAP2 SWAP1 PUSH2 0xBB8 JUMP JUMPDEST PUSH2 0x5A0 JUMPI PUSH1 0x40 MLOAD PUSH3 0x461BCD PUSH1 0xE5 SHL DUP2 MSTORE PUSH1 0x20 PUSH1 0x4 DUP3 ADD MSTORE PUSH1 0x11 PUSH1 0x24 DUP3 ADD MSTORE PUSH17 0x155CD95C881B9BDD081D995C9A599A5959 PUSH1 0x7A SHL PUSH1 0x44 DUP3 ADD MSTORE PUSH1 0x64 ADD PUSH2 0x328 JUMP JUMPDEST PUSH1 0x1 SLOAD PUSH1 0x40 MLOAD PUSH4 0x31A9108F PUSH1 0xE1 SHL DUP2 MSTORE PUSH1 0x4 DUP2 ADD DUP5 SWAP1 MSTORE CALLER SWAP2 PUSH1 0x1 PUSH1 0x1 PUSH1 0xA0 SHL SUB AND SWAP1 PUSH4 0x6352211E SWAP1 PUSH1 0x24 ADD PUSH1 0x20 PUSH1 0x40 MLOAD DUP1 DUP4 SUB DUP2 DUP7 GAS STATICCALL ISZERO DUP1 ISZERO PUSH2 0x5E9 JUMPI RETURNDATASIZE PUSH1 0x0 DUP1 RETURNDATACOPY RETURNDATASIZE PUSH1 0x0 REVERT JUMPDEST POP POP POP POP PUSH1 0x40 MLOAD RETURNDATASIZE PUSH1 0x1F NOT PUSH1 0x1F DUP3 ADD AND DUP3 ADD DUP1 PUSH1 0x40 MSTORE POP DUP2 ADD SWAP1 PUSH2 0x60D SWAP2 SWAP1 PUSH2 0xBE1 JUMP JUMPDEST PUSH1 0x1 PUSH1 0x1 PUSH1 0xA0 SHL SUB AND EQ PUSH2 0x655 JUMPI PUSH1 0x40 MLOAD PUSH3 0x461BCD PUSH1 0xE5 SHL DUP2 MSTORE PUSH1 0x20 PUSH1 0x4 DUP3 ADD MSTORE PUSH1 0xF PUSH1 0x24 DUP3 ADD MSTORE PUSH15 0x2737BA103A37B5B2B71037BBB732B9 PUSH1 0x89 SHL PUSH1 0x44 DUP3 ADD MSTORE PUSH1 0x64 ADD PUSH2 0x328 JUMP JUMPDEST PUSH1 0x0 DUP2 GT PUSH2 0x6A5 JUMPI PUSH1 0x40 MLOAD PUSH3 0x461BCD PUSH1 0xE5 SHL DUP2 MSTORE PUSH1 0x20 PUSH1 0x4 DUP3 ADD MSTORE PUSH1 0x1C PUSH1 0x24 DUP3 ADD MSTORE PUSH32 0x5072696365206D7573742062652067726561746572207468616E203000000000 PUSH1 0x44 DUP3 ADD MSTORE PUSH1 0x64 ADD PUSH2 0x328 JUMP JUMPDEST PUSH1 0x0 DUP3 DUP2 MSTORE PUSH1 0x5 PUSH1 0x20 SWAP1 DUP2 MSTORE PUSH1 0x40 DUP1 DUP4 KECCAK256 SLOAD DUP4 MSTORE PUSH1 0x4 SWAP1 SWAP2 MSTORE SWAP1 KECCAK256 PUSH1 0x2 ADD SLOAD PUSH1 0xFF AND ISZERO PUSH2 0x705 JUMPI PUSH1 0x40 MLOAD PUSH3 0x461BCD PUSH1 0xE5 SHL DUP2 MSTORE PUSH1 0x20 PUSH1 0x4 DUP3 ADD MSTORE PUSH1 0xE PUSH1 0x24 DUP3 ADD MSTORE PUSH14 0x105B1C9958591E481B1A5CDD1959 PUSH1 0x92 SHL PUSH1 0x44 DUP3 ADD MSTORE PUSH1 0x64 ADD PUSH2 0x328 JUMP JUMPDEST PUSH1 0x6 DUP1 SLOAD SWAP1 PUSH1 0x0 PUSH2 0x715 DUP4 PUSH2 0xC20 JUMP JUMPDEST SWAP1 SWAP2 SSTORE POP POP PUSH1 0x40 DUP1 MLOAD PUSH1 0xA0 DUP2 ADD DUP3 MSTORE CALLER DUP1 DUP3 MSTORE PUSH1 0x20 DUP1 DUP4 ADD DUP6 DUP2 MSTORE PUSH1 0x1 DUP5 DUP7 ADD DUP2 DUP2 MSTORE PUSH1 0x60 DUP7 ADD DUP10 DUP2 MSTORE TIMESTAMP PUSH1 0x80 DUP9 ADD SWAP1 DUP2 MSTORE PUSH1 0x6 DUP1 SLOAD PUSH1 0x0 SWAP1 DUP2 MSTORE PUSH1 0x4 DUP1 DUP10 MSTORE DUP12 DUP3 KECCAK256 SWAP11 MLOAD DUP12 SLOAD PUSH1 0x1 PUSH1 0x1 PUSH1 0xA0 SHL SUB NOT AND PUSH1 0x1 PUSH1 0x1 PUSH1 0xA0 SHL SUB SWAP1 SWAP2 AND OR DUP12 SSTORE SWAP7 MLOAD SWAP6 DUP11 ADD SWAP6 SWAP1 SWAP6 SSTORE SWAP3 MLOAD PUSH1 0x2 DUP10 ADD DUP1 SLOAD PUSH1 0xFF NOT AND SWAP2 ISZERO ISZERO SWAP2 SWAP1 SWAP2 OR SWAP1 SSTORE SWAP1 MLOAD PUSH1 0x3 DUP9 ADD SSTORE MLOAD SWAP6 SWAP1 SWAP3 ADD SWAP5 SWAP1 SWAP5 SSTORE SLOAD DUP7 DUP5 MSTORE PUSH1 0x5 DUP3 MSTORE SWAP3 DUP5 SWAP1 KECCAK256 DUP4 SWAP1 SSTORE SWAP3 MLOAD DUP5 DUP2 MSTORE SWAP1 SWAP3 DUP6 SWAP3 SWAP2 PUSH32 0xCF4EBBB01B0166B4C3BB06D2EDD4860D56A19F40C14454FDEB07220BF1752924 SWAP2 ADD PUSH1 0x40 MLOAD DUP1 SWAP2 SUB SWAP1 LOG4 POP POP JUMP JUMPDEST PUSH1 0x0 DUP3 DUP2 MSTORE PUSH1 0x4 PUSH1 0x20 MSTORE PUSH1 0x40 SWAP1 KECCAK256 PUSH1 0x2 DUP2 ADD SLOAD PUSH1 0xFF AND PUSH2 0x81C JUMPI PUSH1 0x40 MLOAD PUSH3 0x461BCD PUSH1 0xE5 SHL DUP2 MSTORE PUSH1 0x4 ADD PUSH2 0x328 SWAP1 PUSH2 0xB8C JUMP JUMPDEST DUP1 SLOAD PUSH1 0x1 PUSH1 0x1 PUSH1 0xA0 SHL SUB AND CALLER EQ PUSH2 0x862 JUMPI PUSH1 0x40 MLOAD PUSH3 0x461BCD PUSH1 0xE5 SHL DUP2 MSTORE PUSH1 0x20 PUSH1 0x4 DUP3 ADD MSTORE PUSH1 0xA PUSH1 0x24 DUP3 ADD MSTORE PUSH10 0x2737BA1039B2B63632B9 PUSH1 0xB1 SHL PUSH1 0x44 DUP3 ADD MSTORE PUSH1 0x64 ADD PUSH2 0x328 JUMP JUMPDEST PUSH1 0x0 DUP3 GT PUSH2 0x8B2 JUMPI PUSH1 0x40 MLOAD PUSH3 0x461BCD PUSH1 0xE5 SHL DUP2 MSTORE PUSH1 0x20 PUSH1 0x4 DUP3 ADD MSTORE PUSH1 0x1C PUSH1 0x24 DUP3 ADD MSTORE PUSH32 0x5072696365206D7573742062652067726561746572207468616E203000000000 PUSH1 0x44 DUP3 ADD MSTORE PUSH1 0x64 ADD PUSH2 0x328 JUMP JUMPDEST PUSH1 0x1 DUP2 ADD DUP3 SWAP1 SSTORE PUSH1 0x40 MLOAD DUP3 DUP2 MSTORE DUP4 SWAP1 PUSH32 0x66BCDE9F7AEC9B81719A4FDEC54CBAFBF6C834D1F2F989D9CD2134DAB8D0C0DE SWAP1 PUSH1 0x20 ADD PUSH1 0x40 MLOAD DUP1 SWAP2 SUB SWAP1 LOG2 POP POP POP JUMP JUMPDEST PUSH1 0x0 DUP2 DUP2 MSTORE PUSH1 0x4 PUSH1 0x20 MSTORE PUSH1 0x40 SWAP1 KECCAK256 PUSH1 0x2 DUP2 ADD SLOAD PUSH1 0xFF AND PUSH2 0x925 JUMPI PUSH1 0x40 MLOAD PUSH3 0x461BCD PUSH1 0xE5 SHL DUP2 MSTORE PUSH1 0x4 ADD PUSH2 0x328 SWAP1 PUSH2 0xB8C JUMP JUMPDEST DUP1 PUSH1 0x1 ADD SLOAD CALLVALUE LT ISZERO PUSH2 0x970 JUMPI PUSH1 0x40 MLOAD PUSH3 0x461BCD PUSH1 0xE5 SHL DUP2 MSTORE PUSH1 0x20 PUSH1 0x4 DUP3 ADD MSTORE PUSH1 0x14 PUSH1 0x24 DUP3 ADD MSTORE PUSH20 0x125B9CDD59999A58DA595B9D081C185E5B595B9D PUSH1 0x62 SHL PUSH1 0x44 DUP3 ADD MSTORE PUSH1 0x64 ADD PUSH2 0x328 JUMP JUMPDEST DUP1 SLOAD PUSH1 0x1 PUSH1 0x1 PUSH1 0xA0 SHL SUB AND CALLER SUB PUSH2 0x9C2 JUMPI PUSH1 0x40 MLOAD PUSH3 0x461BCD PUSH1 0xE5 SHL DUP2 MSTORE PUSH1 0x20 PUSH1 0x4 DUP3 ADD MSTORE PUSH1 0x16 PUSH1 0x24 DUP3 ADD MSTORE PUSH22 0x43616E6E6F7420627579206F776E206C697374696E67 PUSH1 0x50 SHL PUSH1 0x44 DUP3 ADD MSTORE PUSH1 0x64 ADD PUSH2 0x328 JUMP JUMPDEST PUSH1 0x2 DUP2 ADD DUP1 SLOAD PUSH1 0xFF NOT AND SWAP1 SSTORE PUSH1 0x3 SLOAD PUSH1 0x1 DUP3 ADD SLOAD PUSH1 0x0 SWAP2 PUSH1 0x64 SWAP2 PUSH2 0x9E6 SWAP2 SWAP1 PUSH2 0xC39 JUMP JUMPDEST PUSH2 0x9F0 SWAP2 SWAP1 PUSH2 0xC56 JUMP JUMPDEST SWAP1 POP PUSH1 0x0 DUP2 DUP4 PUSH1 0x1 ADD SLOAD PUSH2 0xA04 SWAP2 SWAP1 PUSH2 0xC78 JUMP JUMPDEST PUSH1 0x1 SLOAD DUP5 SLOAD PUSH1 0x3 DUP7 ADD SLOAD PUSH1 0x40 MLOAD PUSH4 0x23B872DD PUSH1 0xE0 SHL DUP2 MSTORE PUSH1 0x1 PUSH1 0x1 PUSH1 0xA0 SHL SUB SWAP3 DUP4 AND PUSH1 0x4 DUP3 ADD MSTORE CALLER PUSH1 0x24 DUP3 ADD MSTORE PUSH1 0x44 DUP2 ADD SWAP2 SWAP1 SWAP2 MSTORE SWAP3 SWAP4 POP AND SWAP1 PUSH4 0x23B872DD SWAP1 PUSH1 0x64 ADD PUSH1 0x0 PUSH1 0x40 MLOAD DUP1 DUP4 SUB DUP2 PUSH1 0x0 DUP8 DUP1 EXTCODESIZE ISZERO DUP1 ISZERO PUSH2 0xA61 JUMPI PUSH1 0x0 DUP1 REVERT JUMPDEST POP GAS CALL ISZERO DUP1 ISZERO PUSH2 0xA75 JUMPI RETURNDATASIZE PUSH1 0x0 DUP1 RETURNDATACOPY RETURNDATASIZE PUSH1 0x0 REVERT JUMPDEST POP POP DUP5 SLOAD PUSH1 0x40 MLOAD PUSH1 0x1 PUSH1 0x1 PUSH1 0xA0 SHL SUB SWAP1 SWAP2 AND SWAP3 POP DUP4 ISZERO PUSH2 0x8FC MUL SWAP2 POP DUP4 SWAP1 PUSH1 0x0 DUP2 DUP2 DUP2 DUP6 DUP9 DUP9 CALL SWAP4 POP POP POP POP ISZERO DUP1 ISZERO PUSH2 0xAB2 JUMPI RETURNDATASIZE PUSH1 0x0 DUP1 RETURNDATACOPY RETURNDATASIZE PUSH1 0x0 REVERT JUMPDEST POP DUP3 PUSH1 0x1 ADD SLOAD CALLVALUE GT ISZERO PUSH2 0xAFE JUMPI PUSH1 0x1 DUP4 ADD SLOAD CALLER SWAP1 PUSH2 0x8FC SWAP1 PUSH2 0xAD4 SWAP1 CALLVALUE PUSH2 0xC78 JUMP JUMPDEST PUSH1 0x40 MLOAD DUP2 ISZERO SWAP1 SWAP3 MUL SWAP2 PUSH1 0x0 DUP2 DUP2 DUP2 DUP6 DUP9 DUP9 CALL SWAP4 POP POP POP POP ISZERO DUP1 ISZERO PUSH2 0xAFC JUMPI RETURNDATASIZE PUSH1 0x0 DUP1 RETURNDATACOPY RETURNDATASIZE PUSH1 0x0 REVERT JUMPDEST POP JUMPDEST CALLER PUSH1 0x1 PUSH1 0x1 PUSH1 0xA0 SHL SUB AND DUP4 PUSH1 0x3 ADD SLOAD DUP6 PUSH32 0x8438A66AC04DB2E2324D5927BECA96C400EE09B811C5DA2B153D4FA7412628E5 DUP7 PUSH1 0x1 ADD SLOAD PUSH1 0x40 MLOAD PUSH2 0xB43 SWAP2 DUP2 MSTORE PUSH1 0x20 ADD SWAP1 JUMP JUMPDEST PUSH1 0x40 MLOAD DUP1 SWAP2 SUB SWAP1 LOG4 POP POP POP POP JUMP JUMPDEST PUSH1 0x0 PUSH1 0x20 DUP3 DUP5 SUB SLT ISZERO PUSH2 0xB63 JUMPI PUSH1 0x0 DUP1 REVERT JUMPDEST POP CALLDATALOAD SWAP2 SWAP1 POP JUMP JUMPDEST PUSH1 0x0 DUP1 PUSH1 0x40 DUP4 DUP6 SUB SLT ISZERO PUSH2 0xB7D JUMPI PUSH1 0x0 DUP1 REVERT JUMPDEST POP POP DUP1 CALLDATALOAD SWAP3 PUSH1 0x20 SWAP1 SWAP2 ADD CALLDATALOAD SWAP2 POP JUMP JUMPDEST PUSH1 0x20 DUP1 DUP3 MSTORE PUSH1 0x12 SWAP1 DUP3 ADD MSTORE PUSH18 0x4C697374696E67206E6F7420616374697665 PUSH1 0x70 SHL PUSH1 0x40 DUP3 ADD MSTORE PUSH1 0x60 ADD SWAP1 JUMP JUMPDEST PUSH1 0x0 PUSH1 0x20 DUP3 DUP5 SUB SLT ISZERO PUSH2 0xBCA JUMPI PUSH1 0x0 DUP1 REVERT JUMPDEST DUP2 MLOAD DUP1 ISZERO ISZERO DUP2 EQ PUSH2 0xBDA JUMPI PUSH1 0x0 DUP1 REVERT JUMPDEST SWAP4 SWAP3 POP POP POP JUMP JUMPDEST PUSH1 0x0 PUSH1 0x20 DUP3 DUP5 SUB SLT ISZERO PUSH2 0xBF3 JUMPI PUSH1 0x0 DUP1 REVERT JUMPDEST DUP2 MLOAD PUSH1 0x1 PUSH1 0x1 PUSH1 0xA0 SHL SUB DUP2 AND DUP2 EQ PUSH2 0xBDA JUMPI PUSH1 0x0 DUP1 REVERT JUMPDEST PUSH4 0x4E487B71 PUSH1 0xE0 SHL PUSH1 0x0 MSTORE PUSH1 0x11 PUSH1 0x4 MSTORE PUSH1 0x24 PUSH1 0x0 REVERT JUMPDEST PUSH1 0x0 PUSH1 0x1 DUP3 ADD PUSH2 0xC32 JUMPI PUSH2 0xC32 PUSH2 0xC0A JUMP JUMPDEST POP PUSH1 0x1 ADD SWAP1 JUMP JUMPDEST DUP1 DUP3 MUL DUP2 ISZERO DUP3 DUP3 DIV DUP5 EQ OR PUSH2 0xC50 JUMPI PUSH2 0xC50 PUSH2 0xC0A JUMP JUMPDEST SWAP3 SWAP2 POP POP JUMP JUMPDEST PUSH1 0x0 DUP3 PUSH2 0xC73 JUMPI PUSH4 0x4E487B71 PUSH1 0xE0 SHL PUSH1 0x0 MSTORE PUSH1 0x12 PUSH1 0x4 MSTORE PUSH1 0x24 PUSH1 0x0 REVERT JUMPDEST POP DIV SWAP1 JUMP JUMPDEST DUP2 DUP2 SUB DUP2 DUP2 GT ISZERO PUSH2 0xC50 JUMPI PUSH2 0xC50 PUSH2 0xC0A JUMP INVALID LOG2 PUSH5 0x6970667358 0x22 SLT KECCAK256 0xFB MUL SSTORE PUSH31 0xF6E1984227B57D722929328366F6991F31B961E77B9FFD49B8E3ABAB64736F PUSH13 0x63430008140033000000000000 "},"methodIdentifiers":{"accessControl()":"13007d55","admin()":"f851a440","buyItem(uint256)":"e7fb74c7","cancelListing(uint256)":"305a67a8","listItem(uint256,uint256)":"883efa67","listingCounter()":"6c2c9c7d","listings(uint256)":"de74e57b","nftContract()":"d56d229d","platformFee()":"26232a2e","setPlatformFee(uint256)":"12e8e2c3","tokenToListing(uint256)":"ea7eaec6","updateListingPrice(uint256,uint256)":"c4604943","withdrawFees()":"476343ee"}}}}}