{"contracts/AlbashSwapEscrow.sol":{"AlbashSwapEscrow":{"abi":[{"inputs":[],"stateMutability":"nonpayable","type":"constructor"},{"anonymous":false,"inputs":[{"indexed":true,"internalType":"uint256","name":"swapId","type":"uint256"}],"name":"SwapAccepted","type":"event"},{"anonymous":false,"inputs":[{"indexed":true,"internalType":"uint256","name":"swapId","type":"uint256"},{"indexed":true,"internalType":"address","name":"cancelledBy","type":"address"}],"name":"SwapCancelled","type":"event"},{"anonymous":false,"inputs":[{"indexed":true,"internalType":"uint256","name":"swapId","type":"uint256"}],"name":"SwapCompleted","type":"event"},{"anonymous":false,"inputs":[{"indexed":true,"internalType":"uint256","name":"swapId","type":"uint256"},{"indexed":true,"internalType":"address","name":"partyA","type":"address"},{"indexed":true,"internalType":"address","name":"partyB","type":"address"},{"indexed":false,"internalType":"uint256","name":"valueA","type":"uint256"},{"indexed":false,"internalType":"uint256","name":"valueB","type":"uint256"}],"name":"SwapCreated","type":"event"},{"anonymous":false,"inputs":[{"indexed":true,"internalType":"uint256","name":"swapId","type":"uint256"},{"indexed":true,"internalType":"address","name":"disputedBy","type":"address"}],"name":"SwapDisputed","type":"event"},{"inputs":[{"internalType":"uint256","name":"swapId","type":"uint256"}],"name":"acceptSwap","outputs":[],"stateMutability":"payable","type":"function"},{"inputs":[],"name":"admin","outputs":[{"internalType":"address","name":"","type":"address"}],"stateMutability":"view","type":"function"},{"inputs":[{"internalType":"uint256","name":"swapId","type":"uint256"}],"name":"cancelSwap","outputs":[],"stateMutability":"nonpayable","type":"function"},{"inputs":[{"internalType":"uint256","name":"swapId","type":"uint256"}],"name":"completeSwap","outputs":[],"stateMutability":"nonpayable","type":"function"},{"inputs":[{"internalType":"address","name":"partyB","type":"address"},{"internalType":"uint256","name":"valueA","type":"uint256"},{"internalType":"uint256","name":"valueB","type":"uint256"},{"internalType":"uint256","name":"tokenIdA","type":"uint256"},{"internalType":"uint256","name":"tokenIdB","type":"uint256"},{"internalType":"string","name":"metadataURI","type":"string"}],"name":"createSwap","outputs":[{"internalType":"uint256","name":"","type":"uint256"}],"stateMutability":"payable","type":"function"},{"inputs":[{"internalType":"uint256","name":"swapId","type":"uint256"}],"name":"disputeSwap","outputs":[],"stateMutability":"nonpayable","type":"function"},{"inputs":[{"internalType":"uint256","name":"swapId","type":"uint256"},{"internalType":"bool","name":"complete","type":"bool"}],"name":"resolveDispute","outputs":[],"stateMutability":"nonpayable","type":"function"},{"inputs":[],"name":"swapCounter","outputs":[{"internalType":"uint256","name":"","type":"uint256"}],"stateMutability":"view","type":"function"},{"inputs":[{"internalType":"uint256","name":"","type":"uint256"}],"name":"swaps","outputs":[{"internalType":"address","name":"partyA","type":"address"},{"internalType":"address","name":"partyB","type":"address"},{"internalType":"uint256","name":"valueA","type":"uint256"},{"internalType":"uint256","name":"valueB","type":"uint256"},{"internalType":"uint256","name":"tokenIdA","type":"uint256"},{"internalType":"uint256","name":"tokenIdB","type":"uint256"},{"internalType":"enum AlbashSwapEscrow.SwapStatus","name":"status","type":"uint8"},{"internalType":"uint256","name":"createdAt","type":"uint256"},{"internalType":"uint256","name":"acceptedAt","type":"uint256"},{"internalType":"uint256","name":"completedAt","type":"uint256"},{"internalType":"string","name":"metadataURI","type":"string"}],"stateMutability":"view","type":"function"}],"evm":{"bytecode":{"linkReferences":{},"object":"608060405234801561001057600080fd5b50600080546001600160a01b03191633179055611164806100326000396000f3fe6080604052600436106100865760003560e01c80634b6c1252116100595780634b6c12521461010957806354d6a2b7146101295780638c43d14b14610149578063f09c58291461015c578063f851a4401461019357600080fd5b80631bf330041461008b578063331ccd4c146100a057806333bce8c3146100c057806334b25ee2146100e9575b600080fd5b61009e610099366004610d41565b6101cb565b005b3480156100ac57600080fd5b5061009e6100bb366004610d41565b61032d565b3480156100cc57600080fd5b506100d660015481565b6040519081526020015b60405180910390f35b3480156100f557600080fd5b5061009e610104366004610d5a565b610562565b34801561011557600080fd5b5061009e610124366004610d41565b6106ab565b34801561013557600080fd5b5061009e610144366004610d41565b6107b4565b6100d6610157366004610da5565b6109ba565b34801561016857600080fd5b5061017c610177366004610d41565b610c4b565b6040516100e09b9a99989796959493929190610ef6565b34801561019f57600080fd5b506000546101b3906001600160a01b031681565b6040516001600160a01b0390911681526020016100e0565b600081815260026020526040812090600682015460ff1660048111156101f3576101f3610e9a565b146102385760405162461bcd60e51b815260206004820152601060248201526f53776170206e6f742070656e64696e6760801b60448201526064015b60405180910390fd5b60018101546001600160a01b0316331461028b5760405162461bcd60e51b81526020600482015260146024820152734e6f74207468652074617267657420706172747960601b604482015260640161022f565b6003810154156102e95780600301543410156102e95760405162461bcd60e51b815260206004820152601d60248201527f496e73756666696369656e74207061796d656e7420666f722073776170000000604482015260640161022f565b60068101805460ff1916600117905542600882015560405182907f7080e652b0056fb27597071d591828292afd96fd17bc428ff26dfcca4acc523090600090a25050565b600081815260026020526040902080548291906001600160a01b0316331480610362575060018101546001600160a01b031633145b61037e5760405162461bcd60e51b815260040161022f90610f88565b60008381526002602052604090206001600682015460ff1660048111156103a7576103a7610e9a565b146103e85760405162461bcd60e51b815260206004820152601160248201527014ddd85c081b9bdd081858d8d95c1d1959607a1b604482015260640161022f565b60068101805460ff1916600290811790915542600983015581015415801590610415575060008160030154115b1561049e57600181015460028201546040516001600160a01b039092169181156108fc0291906000818181858888f1935050505015801561045a573d6000803e3d6000fd5b50805460038201546040516001600160a01b039092169181156108fc0291906000818181858888f19350505050158015610498573d6000803e3d6000fd5b50610531565b6002810154156104e857600181015460028201546040516001600160a01b039092169181156108fc0291906000818181858888f19350505050158015610498573d6000803e3d6000fd5b60038101541561053157805460038201546040516001600160a01b039092169181156108fc0291906000818181858888f1935050505015801561052f573d6000803e3d6000fd5b505b60405184907f02f857175b5562dc8e8fe1cc6d39215bf823a07a685f52fba82f1e637d41851390600090a250505050565b6000546001600160a01b031633146105a85760405162461bcd60e51b81526020600482015260096024820152682737ba1030b236b4b760b91b604482015260640161022f565b60008281526002602052604090206004600682015460ff1660048111156105d1576105d1610e9a565b146106125760405162461bcd60e51b815260206004820152601160248201527014ddd85c081b9bdd08191a5cdc1d5d1959607a1b604482015260640161022f565b811561065d5760068101805460ff1916600217905542600982015560405183907f02f857175b5562dc8e8fe1cc6d39215bf823a07a685f52fba82f1e637d41851390600090a2505050565b60068101805460ff19166003179055600080546040516001600160a01b039091169185917fc9660176d761dbcab77c697281268e30dffb9a42cafafcbe4e3a58fc44496e329190a35b505050565b600081815260026020526040902080548291906001600160a01b03163314806106e0575060018101546001600160a01b031633145b6106fc5760405162461bcd60e51b815260040161022f90610f88565b60008381526002602052604090206001600682015460ff16600481111561072557610725610e9a565b146107725760405162461bcd60e51b815260206004820181905260248201527f53776170206d75737420626520616363657074656420746f2064697370757465604482015260640161022f565b60068101805460ff19166004179055604051339085907f4d46047ef020645d46d71e7fecf96ee21e0cf31313412e3b609050eca2fb35d990600090a350505050565b600081815260026020526040902080548291906001600160a01b03163314806107e9575060018101546001600160a01b031633145b6108055760405162461bcd60e51b815260040161022f90610f88565b600083815260026020526040812090600682015460ff16600481111561082d5761082d610e9a565b148061085157506001600682015460ff16600481111561084f5761084f610e9a565b145b61088d5760405162461bcd60e51b815260206004820152600d60248201526c10d85b9b9bdd0818d85b98d95b609a1b604482015260640161022f565b60068101805460ff191660031790556002810154158015906108b8575080546001600160a01b031633145b156108fc57805460028201546040516001600160a01b039092169181156108fc0291906000818181858888f193505050501580156108fa573d6000803e3d6000fd5b505b6000816003015411801561091c575060018101546001600160a01b031633145b801561094057506001600682015460ff16600481111561093e5761093e610e9a565b145b1561098757600181015460038201546040516001600160a01b039092169181156108fc0291906000818181858888f19350505050158015610985573d6000803e3d6000fd5b505b604051339085907fc9660176d761dbcab77c697281268e30dffb9a42cafafcbe4e3a58fc44496e3290600090a350505050565b60006001600160a01b038716610a0b5760405162461bcd60e51b8152602060048201526016602482015275496e76616c696420706172747942206164647265737360501b604482015260640161022f565b336001600160a01b03881603610a635760405162461bcd60e51b815260206004820152601960248201527f43616e6e6f742073776170207769746820796f757273656c6600000000000000604482015260640161022f565b8515610ab95785341015610ab95760405162461bcd60e51b815260206004820152601d60248201527f496e73756666696369656e74207061796d656e7420666f722073776170000000604482015260640161022f565b60018054906000610ac983610fbf565b909155505060408051610160810182523381526001600160a01b0389811660208084019182528385018b8152606085018b8152608086018b815260a087018b8152600060c089018181524260e08b01526101008a018290526101208a018290526101408a018d90526001805483526002978890529a90912089518154908a166001600160a01b03199182161782559751818c01805491909a169816979097179097559251938501939093555160038401559051600480840191909155905160058301559151600682018054949592949193909260ff199290921691908490811115610bb657610bb6610e9a565b021790555060e0820151600782015561010082015160088201556101208201516009820155610140820151600a820190610bf0908261106e565b505060015460408051898152602081018990526001600160a01b038b1693503392917fe6134da22519ba7225b370de70990347b82fb28a82f305a9dd0f42b7561e27b7910160405180910390a4506001549695505050505050565b600260208190526000918252604090912080546001820154928201546003830154600484015460058501546006860154600787015460088801546009890154600a8a0180546001600160a01b039a8b169c909a169a989997989697959660ff9095169593949293919291610cbe90610fe6565b80601f0160208091040260200160405190810160405280929190818152602001828054610cea90610fe6565b8015610d375780601f10610d0c57610100808354040283529160200191610d37565b820191906000526020600020905b815481529060010190602001808311610d1a57829003601f168201915b505050505090508b565b600060208284031215610d5357600080fd5b5035919050565b60008060408385031215610d6d57600080fd5b8235915060208301358015158114610d8457600080fd5b809150509250929050565b634e487b7160e01b600052604160045260246000fd5b60008060008060008060c08789031215610dbe57600080fd5b86356001600160a01b0381168114610dd557600080fd5b95506020870135945060408701359350606087013592506080870135915060a087013567ffffffffffffffff80821115610e0e57600080fd5b818901915089601f830112610e2257600080fd5b813581811115610e3457610e34610d8f565b604051601f8201601f19908116603f01168101908382118183101715610e5c57610e5c610d8f565b816040528281528c6020848701011115610e7557600080fd5b8260208601602083013760006020848301015280955050505050509295509295509295565b634e487b7160e01b600052602160045260246000fd5b6000815180845260005b81811015610ed657602081850181015186830182015201610eba565b506000602082860101526020601f19601f83011685010191505092915050565b6001600160a01b038c811682528b166020820152604081018a9052606081018990526080810188905260a08101879052600061016060058810610f4957634e487b7160e01b600052602160045260246000fd5b8760c08401528660e0840152856101008401528461012084015280610140840152610f7681840185610eb0565b9e9d5050505050505050505050505050565b60208082526018908201527f4e6f74206120706172747920746f207468697320737761700000000000000000604082015260600190565b600060018201610fdf57634e487b7160e01b600052601160045260246000fd5b5060010190565b600181811c90821680610ffa57607f821691505b60208210810361101a57634e487b7160e01b600052602260045260246000fd5b50919050565b601f8211156106a657600081815260208120601f850160051c810160208610156110475750805b601f850160051c820191505b8181101561106657828155600101611053565b505050505050565b815167ffffffffffffffff81111561108857611088610d8f565b61109c816110968454610fe6565b84611020565b602080601f8311600181146110d157600084156110b95750858301515b600019600386901b1c1916600185901b178555611066565b600085815260208120601f198616915b82811015611100578886015182559484019460019091019084016110e1565b508582101561111e5787850151600019600388901b60f8161c191681555b5050505050600190811b0190555056fea26469706673582212207389a1a3a18ebd29cccdb50ca805d857fcb57a79a0f8e92db933d979fdaa778764736f6c63430008140033","opcodes":"PUSH1 0x80 PUSH1 0x40 MSTORE CALLVALUE DUP1 ISZERO PUSH2 0x10 JUMPI PUSH1 0x0 DUP1 REVERT JUMPDEST POP PUSH1 0x0 DUP1 SLOAD PUSH1 0x1 PUSH1 0x1 PUSH1 0xA0 SHL SUB NOT AND CALLER OR SWAP1 SSTORE PUSH2 0x1164 DUP1 PUSH2 0x32 PUSH1 0x0 CODECOPY PUSH1 0x0 RETURN INVALID PUSH1 0x80 PUSH1 0x40 MSTORE PUSH1 0x4 CALLDATASIZE LT PUSH2 0x86 JUMPI PUSH1 0x0 CALLDATALOAD PUSH1 0xE0 SHR DUP1 PUSH4 0x4B6C1252 GT PUSH2 0x59 JUMPI DUP1 PUSH4 0x4B6C1252 EQ PUSH2 0x109 JUMPI DUP1 PUSH4 0x54D6A2B7 EQ PUSH2 0x129 JUMPI DUP1 PUSH4 0x8C43D14B EQ PUSH2 0x149 JUMPI DUP1 PUSH4 0xF09C5829 EQ PUSH2 0x15C JUMPI DUP1 PUSH4 0xF851A440 EQ PUSH2 0x193 JUMPI PUSH1 0x0 DUP1 REVERT JUMPDEST DUP1 PUSH4 0x1BF33004 EQ PUSH2 0x8B JUMPI DUP1 PUSH4 0x331CCD4C EQ PUSH2 0xA0 JUMPI DUP1 PUSH4 0x33BCE8C3 EQ PUSH2 0xC0 JUMPI DUP1 PUSH4 0x34B25EE2 EQ PUSH2 0xE9 JUMPI JUMPDEST PUSH1 0x0 DUP1 REVERT JUMPDEST PUSH2 0x9E PUSH2 0x99 CALLDATASIZE PUSH1 0x4 PUSH2 0xD41 JUMP JUMPDEST PUSH2 0x1CB JUMP JUMPDEST STOP JUMPDEST CALLVALUE DUP1 ISZERO PUSH2 0xAC JUMPI PUSH1 0x0 DUP1 REVERT JUMPDEST POP PUSH2 0x9E PUSH2 0xBB CALLDATASIZE PUSH1 0x4 PUSH2 0xD41 JUMP JUMPDEST PUSH2 0x32D JUMP JUMPDEST CALLVALUE DUP1 ISZERO PUSH2 0xCC JUMPI PUSH1 0x0 DUP1 REVERT JUMPDEST POP PUSH2 0xD6 PUSH1 0x1 SLOAD DUP2 JUMP JUMPDEST PUSH1 0x40 MLOAD SWAP1 DUP2 MSTORE PUSH1 0x20 ADD JUMPDEST PUSH1 0x40 MLOAD DUP1 SWAP2 SUB SWAP1 RETURN JUMPDEST CALLVALUE DUP1 ISZERO PUSH2 0xF5 JUMPI PUSH1 0x0 DUP1 REVERT JUMPDEST POP PUSH2 0x9E PUSH2 0x104 CALLDATASIZE PUSH1 0x4 PUSH2 0xD5A JUMP JUMPDEST PUSH2 0x562 JUMP JUMPDEST CALLVALUE DUP1 ISZERO PUSH2 0x115 JUMPI PUSH1 0x0 DUP1 REVERT JUMPDEST POP PUSH2 0x9E PUSH2 0x124 CALLDATASIZE PUSH1 0x4 PUSH2 0xD41 JUMP JUMPDEST PUSH2 0x6AB JUMP JUMPDEST CALLVALUE DUP1 ISZERO PUSH2 0x135 JUMPI PUSH1 0x0 DUP1 REVERT JUMPDEST POP PUSH2 0x9E PUSH2 0x144 CALLDATASIZE PUSH1 0x4 PUSH2 0xD41 JUMP JUMPDEST PUSH2 0x7B4 JUMP JUMPDEST PUSH2 0xD6 PUSH2 0x157 CALLDATASIZE PUSH1 0x4 PUSH2 0xDA5 JUMP JUMPDEST PUSH2 0x9BA JUMP JUMPDEST CALLVALUE DUP1 ISZERO PUSH2 0x168 JUMPI PUSH1 0x0 DUP1 REVERT JUMPDEST POP PUSH2 0x17C PUSH2 0x177 CALLDATASIZE PUSH1 0x4 PUSH2 0xD41 JUMP JUMPDEST PUSH2 0xC4B JUMP JUMPDEST PUSH1 0x40 MLOAD PUSH2 0xE0 SWAP12 SWAP11 SWAP10 SWAP9 SWAP8 SWAP7 SWAP6 SWAP5 SWAP4 SWAP3 SWAP2 SWAP1 PUSH2 0xEF6 JUMP JUMPDEST CALLVALUE DUP1 ISZERO PUSH2 0x19F JUMPI PUSH1 0x0 DUP1 REVERT JUMPDEST POP PUSH1 0x0 SLOAD PUSH2 0x1B3 SWAP1 PUSH1 0x1 PUSH1 0x1 PUSH1 0xA0 SHL SUB AND DUP2 JUMP JUMPDEST PUSH1 0x40 MLOAD PUSH1 0x1 PUSH1 0x1 PUSH1 0xA0 SHL SUB SWAP1 SWAP2 AND DUP2 MSTORE PUSH1 0x20 ADD PUSH2 0xE0 JUMP JUMPDEST PUSH1 0x0 DUP2 DUP2 MSTORE PUSH1 0x2 PUSH1 0x20 MSTORE PUSH1 0x40 DUP2 KECCAK256 SWAP1 PUSH1 0x6 DUP3 ADD SLOAD PUSH1 0xFF AND PUSH1 0x4 DUP2 GT ISZERO PUSH2 0x1F3 JUMPI PUSH2 0x1F3 PUSH2 0xE9A JUMP JUMPDEST EQ PUSH2 0x238 JUMPI PUSH1 0x40 MLOAD PUSH3 0x461BCD PUSH1 0xE5 SHL DUP2 MSTORE PUSH1 0x20 PUSH1 0x4 DUP3 ADD MSTORE PUSH1 0x10 PUSH1 0x24 DUP3 ADD MSTORE PUSH16 0x53776170206E6F742070656E64696E67 PUSH1 0x80 SHL PUSH1 0x44 DUP3 ADD MSTORE PUSH1 0x64 ADD JUMPDEST PUSH1 0x40 MLOAD DUP1 SWAP2 SUB SWAP1 REVERT JUMPDEST PUSH1 0x1 DUP2 ADD SLOAD PUSH1 0x1 PUSH1 0x1 PUSH1 0xA0 SHL SUB AND CALLER EQ PUSH2 0x28B JUMPI PUSH1 0x40 MLOAD PUSH3 0x461BCD PUSH1 0xE5 SHL DUP2 MSTORE PUSH1 0x20 PUSH1 0x4 DUP3 ADD MSTORE PUSH1 0x14 PUSH1 0x24 DUP3 ADD MSTORE PUSH20 0x4E6F742074686520746172676574207061727479 PUSH1 0x60 SHL PUSH1 0x44 DUP3 ADD MSTORE PUSH1 0x64 ADD PUSH2 0x22F JUMP JUMPDEST PUSH1 0x3 DUP2 ADD SLOAD ISZERO PUSH2 0x2E9 JUMPI DUP1 PUSH1 0x3 ADD SLOAD CALLVALUE LT ISZERO PUSH2 0x2E9 JUMPI PUSH1 0x40 MLOAD PUSH3 0x461BCD PUSH1 0xE5 SHL DUP2 MSTORE PUSH1 0x20 PUSH1 0x4 DUP3 ADD MSTORE PUSH1 0x1D PUSH1 0x24 DUP3 ADD MSTORE PUSH32 0x496E73756666696369656E74207061796D656E7420666F722073776170000000 PUSH1 0x44 DUP3 ADD MSTORE PUSH1 0x64 ADD PUSH2 0x22F JUMP JUMPDEST PUSH1 0x6 DUP2 ADD DUP1 SLOAD PUSH1 0xFF NOT AND PUSH1 0x1 OR SWAP1 SSTORE TIMESTAMP PUSH1 0x8 DUP3 ADD SSTORE PUSH1 0x40 MLOAD DUP3 SWAP1 PUSH32 0x7080E652B0056FB27597071D591828292AFD96FD17BC428FF26DFCCA4ACC5230 SWAP1 PUSH1 0x0 SWAP1 LOG2 POP POP JUMP JUMPDEST PUSH1 0x0 DUP2 DUP2 MSTORE PUSH1 0x2 PUSH1 0x20 MSTORE PUSH1 0x40 SWAP1 KECCAK256 DUP1 SLOAD DUP3 SWAP2 SWAP1 PUSH1 0x1 PUSH1 0x1 PUSH1 0xA0 SHL SUB AND CALLER EQ DUP1 PUSH2 0x362 JUMPI POP PUSH1 0x1 DUP2 ADD SLOAD PUSH1 0x1 PUSH1 0x1 PUSH1 0xA0 SHL SUB AND CALLER EQ JUMPDEST PUSH2 0x37E JUMPI PUSH1 0x40 MLOAD PUSH3 0x461BCD PUSH1 0xE5 SHL DUP2 MSTORE PUSH1 0x4 ADD PUSH2 0x22F SWAP1 PUSH2 0xF88 JUMP JUMPDEST PUSH1 0x0 DUP4 DUP2 MSTORE PUSH1 0x2 PUSH1 0x20 MSTORE PUSH1 0x40 SWAP1 KECCAK256 PUSH1 0x1 PUSH1 0x6 DUP3 ADD SLOAD PUSH1 0xFF AND PUSH1 0x4 DUP2 GT ISZERO PUSH2 0x3A7 JUMPI PUSH2 0x3A7 PUSH2 0xE9A JUMP JUMPDEST EQ PUSH2 0x3E8 JUMPI PUSH1 0x40 MLOAD PUSH3 0x461BCD PUSH1 0xE5 SHL DUP2 MSTORE PUSH1 0x20 PUSH1 0x4 DUP3 ADD MSTORE PUSH1 0x11 PUSH1 0x24 DUP3 ADD MSTORE PUSH17 0x14DDD85C081B9BDD081858D8D95C1D1959 PUSH1 0x7A SHL PUSH1 0x44 DUP3 ADD MSTORE PUSH1 0x64 ADD PUSH2 0x22F JUMP JUMPDEST PUSH1 0x6 DUP2 ADD DUP1 SLOAD PUSH1 0xFF NOT AND PUSH1 0x2 SWAP1 DUP2 OR SWAP1 SWAP2 SSTORE TIMESTAMP PUSH1 0x9 DUP4 ADD SSTORE DUP2 ADD SLOAD ISZERO DUP1 ISZERO SWAP1 PUSH2 0x415 JUMPI POP PUSH1 0x0 DUP2 PUSH1 0x3 ADD SLOAD GT JUMPDEST ISZERO PUSH2 0x49E JUMPI PUSH1 0x1 DUP2 ADD SLOAD PUSH1 0x2 DUP3 ADD SLOAD PUSH1 0x40 MLOAD PUSH1 0x1 PUSH1 0x1 PUSH1 0xA0 SHL SUB SWAP1 SWAP3 AND SWAP2 DUP2 ISZERO PUSH2 0x8FC MUL SWAP2 SWAP1 PUSH1 0x0 DUP2 DUP2 DUP2 DUP6 DUP9 DUP9 CALL SWAP4 POP POP POP POP ISZERO DUP1 ISZERO PUSH2 0x45A JUMPI RETURNDATASIZE PUSH1 0x0 DUP1 RETURNDATACOPY RETURNDATASIZE PUSH1 0x0 REVERT JUMPDEST POP DUP1 SLOAD PUSH1 0x3 DUP3 ADD SLOAD PUSH1 0x40 MLOAD PUSH1 0x1 PUSH1 0x1 PUSH1 0xA0 SHL SUB SWAP1 SWAP3 AND SWAP2 DUP2 ISZERO PUSH2 0x8FC MUL SWAP2 SWAP1 PUSH1 0x0 DUP2 DUP2 DUP2 DUP6 DUP9 DUP9 CALL SWAP4 POP POP POP POP ISZERO DUP1 ISZERO PUSH2 0x498 JUMPI RETURNDATASIZE PUSH1 0x0 DUP1 RETURNDATACOPY RETURNDATASIZE PUSH1 0x0 REVERT JUMPDEST POP PUSH2 0x531 JUMP JUMPDEST PUSH1 0x2 DUP2 ADD SLOAD ISZERO PUSH2 0x4E8 JUMPI PUSH1 0x1 DUP2 ADD SLOAD PUSH1 0x2 DUP3 ADD SLOAD PUSH1 0x40 MLOAD PUSH1 0x1 PUSH1 0x1 PUSH1 0xA0 SHL SUB SWAP1 SWAP3 AND SWAP2 DUP2 ISZERO PUSH2 0x8FC MUL SWAP2 SWAP1 PUSH1 0x0 DUP2 DUP2 DUP2 DUP6 DUP9 DUP9 CALL SWAP4 POP POP POP POP ISZERO DUP1 ISZERO PUSH2 0x498 JUMPI RETURNDATASIZE PUSH1 0x0 DUP1 RETURNDATACOPY RETURNDATASIZE PUSH1 0x0 REVERT JUMPDEST PUSH1 0x3 DUP2 ADD SLOAD ISZERO PUSH2 0x531 JUMPI DUP1 SLOAD PUSH1 0x3 DUP3 ADD SLOAD PUSH1 0x40 MLOAD PUSH1 0x1 PUSH1 0x1 PUSH1 0xA0 SHL SUB SWAP1 SWAP3 AND SWAP2 DUP2 ISZERO PUSH2 0x8FC MUL SWAP2 SWAP1 PUSH1 0x0 DUP2 DUP2 DUP2 DUP6 DUP9 DUP9 CALL SWAP4 POP POP POP POP ISZERO DUP1 ISZERO PUSH2 0x52F JUMPI RETURNDATASIZE PUSH1 0x0 DUP1 RETURNDATACOPY RETURNDATASIZE PUSH1 0x0 REVERT JUMPDEST POP JUMPDEST PUSH1 0x40 MLOAD DUP5 SWAP1 PUSH32 0x2F857175B5562DC8E8FE1CC6D39215BF823A07A685F52FBA82F1E637D418513 SWAP1 PUSH1 0x0 SWAP1 LOG2 POP POP POP POP JUMP JUMPDEST PUSH1 0x0 SLOAD PUSH1 0x1 PUSH1 0x1 PUSH1 0xA0 SHL SUB AND CALLER EQ PUSH2 0x5A8 JUMPI PUSH1 0x40 MLOAD PUSH3 0x461BCD PUSH1 0xE5 SHL DUP2 MSTORE PUSH1 0x20 PUSH1 0x4 DUP3 ADD MSTORE PUSH1 0x9 PUSH1 0x24 DUP3 ADD MSTORE PUSH9 0x2737BA1030B236B4B7 PUSH1 0xB9 SHL PUSH1 0x44 DUP3 ADD MSTORE PUSH1 0x64 ADD PUSH2 0x22F JUMP JUMPDEST PUSH1 0x0 DUP3 DUP2 MSTORE PUSH1 0x2 PUSH1 0x20 MSTORE PUSH1 0x40 SWAP1 KECCAK256 PUSH1 0x4 PUSH1 0x6 DUP3 ADD SLOAD PUSH1 0xFF AND PUSH1 0x4 DUP2 GT ISZERO PUSH2 0x5D1 JUMPI PUSH2 0x5D1 PUSH2 0xE9A JUMP JUMPDEST EQ PUSH2 0x612 JUMPI PUSH1 0x40 MLOAD PUSH3 0x461BCD PUSH1 0xE5 SHL DUP2 MSTORE PUSH1 0x20 PUSH1 0x4 DUP3 ADD MSTORE PUSH1 0x11 PUSH1 0x24 DUP3 ADD MSTORE PUSH17 0x14DDD85C081B9BDD08191A5CDC1D5D1959 PUSH1 0x7A SHL PUSH1 0x44 DUP3 ADD MSTORE PUSH1 0x64 ADD PUSH2 0x22F JUMP JUMPDEST DUP2 ISZERO PUSH2 0x65D JUMPI PUSH1 0x6 DUP2 ADD DUP1 SLOAD PUSH1 0xFF NOT AND PUSH1 0x2 OR SWAP1 SSTORE TIMESTAMP PUSH1 0x9 DUP3 ADD SSTORE PUSH1 0x40 MLOAD DUP4 SWAP1 PUSH32 0x2F857175B5562DC8E8FE1CC6D39215BF823A07A685F52FBA82F1E637D418513 SWAP1 PUSH1 0x0 SWAP1 LOG2 POP POP POP JUMP JUMPDEST PUSH1 0x6 DUP2 ADD DUP1 SLOAD PUSH1 0xFF NOT AND PUSH1 0x3 OR SWAP1 SSTORE PUSH1 0x0 DUP1 SLOAD PUSH1 0x40 MLOAD PUSH1 0x1 PUSH1 0x1 PUSH1 0xA0 SHL SUB SWAP1 SWAP2 AND SWAP2 DUP6 SWAP2 PUSH32 0xC9660176D761DBCAB77C697281268E30DFFB9A42CAFAFCBE4E3A58FC44496E32 SWAP2 SWAP1 LOG3 JUMPDEST POP POP POP JUMP JUMPDEST PUSH1 0x0 DUP2 DUP2 MSTORE PUSH1 0x2 PUSH1 0x20 MSTORE PUSH1 0x40 SWAP1 KECCAK256 DUP1 SLOAD DUP3 SWAP2 SWAP1 PUSH1 0x1 PUSH1 0x1 PUSH1 0xA0 SHL SUB AND CALLER EQ DUP1 PUSH2 0x6E0 JUMPI POP PUSH1 0x1 DUP2 ADD SLOAD PUSH1 0x1 PUSH1 0x1 PUSH1 0xA0 SHL SUB AND CALLER EQ JUMPDEST PUSH2 0x6FC JUMPI PUSH1 0x40 MLOAD PUSH3 0x461BCD PUSH1 0xE5 SHL DUP2 MSTORE PUSH1 0x4 ADD PUSH2 0x22F SWAP1 PUSH2 0xF88 JUMP JUMPDEST PUSH1 0x0 DUP4 DUP2 MSTORE PUSH1 0x2 PUSH1 0x20 MSTORE PUSH1 0x40 SWAP1 KECCAK256 PUSH1 0x1 PUSH1 0x6 DUP3 ADD SLOAD PUSH1 0xFF AND PUSH1 0x4 DUP2 GT ISZERO PUSH2 0x725 JUMPI PUSH2 0x725 PUSH2 0xE9A JUMP JUMPDEST EQ PUSH2 0x772 JUMPI PUSH1 0x40 MLOAD PUSH3 0x461BCD PUSH1 0xE5 SHL DUP2 MSTORE PUSH1 0x20 PUSH1 0x4 DUP3 ADD DUP2 SWAP1 MSTORE PUSH1 0x24 DUP3 ADD MSTORE PUSH32 0x53776170206D75737420626520616363657074656420746F2064697370757465 PUSH1 0x44 DUP3 ADD MSTORE PUSH1 0x64 ADD PUSH2 0x22F JUMP JUMPDEST PUSH1 0x6 DUP2 ADD DUP1 SLOAD PUSH1 0xFF NOT AND PUSH1 0x4 OR SWAP1 SSTORE PUSH1 0x40 MLOAD CALLER SWAP1 DUP6 SWAP1 PUSH32 0x4D46047EF020645D46D71E7FECF96EE21E0CF31313412E3B609050ECA2FB35D9 SWAP1 PUSH1 0x0 SWAP1 LOG3 POP POP POP POP JUMP JUMPDEST PUSH1 0x0 DUP2 DUP2 MSTORE PUSH1 0x2 PUSH1 0x20 MSTORE PUSH1 0x40 SWAP1 KECCAK256 DUP1 SLOAD DUP3 SWAP2 SWAP1 PUSH1 0x1 PUSH1 0x1 PUSH1 0xA0 SHL SUB AND CALLER EQ DUP1 PUSH2 0x7E9 JUMPI POP PUSH1 0x1 DUP2 ADD SLOAD PUSH1 0x1 PUSH1 0x1 PUSH1 0xA0 SHL SUB AND CALLER EQ JUMPDEST PUSH2 0x805 JUMPI PUSH1 0x40 MLOAD PUSH3 0x461BCD PUSH1 0xE5 SHL DUP2 MSTORE PUSH1 0x4 ADD PUSH2 0x22F SWAP1 PUSH2 0xF88 JUMP JUMPDEST PUSH1 0x0 DUP4 DUP2 MSTORE PUSH1 0x2 PUSH1 0x20 MSTORE PUSH1 0x40 DUP2 KECCAK256 SWAP1 PUSH1 0x6 DUP3 ADD SLOAD PUSH1 0xFF AND PUSH1 0x4 DUP2 GT ISZERO PUSH2 0x82D JUMPI PUSH2 0x82D PUSH2 0xE9A JUMP JUMPDEST EQ DUP1 PUSH2 0x851 JUMPI POP PUSH1 0x1 PUSH1 0x6 DUP3 ADD SLOAD PUSH1 0xFF AND PUSH1 0x4 DUP2 GT ISZERO PUSH2 0x84F JUMPI PUSH2 0x84F PUSH2 0xE9A JUMP JUMPDEST EQ JUMPDEST PUSH2 0x88D JUMPI PUSH1 0x40 MLOAD PUSH3 0x461BCD PUSH1 0xE5 SHL DUP2 MSTORE PUSH1 0x20 PUSH1 0x4 DUP3 ADD MSTORE PUSH1 0xD PUSH1 0x24 DUP3 ADD MSTORE PUSH13 0x10D85B9B9BDD0818D85B98D95B PUSH1 0x9A SHL PUSH1 0x44 DUP3 ADD MSTORE PUSH1 0x64 ADD PUSH2 0x22F JUMP JUMPDEST PUSH1 0x6 DUP2 ADD DUP1 SLOAD PUSH1 0xFF NOT AND PUSH1 0x3 OR SWAP1 SSTORE PUSH1 0x2 DUP2 ADD SLOAD ISZERO DUP1 ISZERO SWAP1 PUSH2 0x8B8 JUMPI POP DUP1 SLOAD PUSH1 0x1 PUSH1 0x1 PUSH1 0xA0 SHL SUB AND CALLER EQ JUMPDEST ISZERO PUSH2 0x8FC JUMPI DUP1 SLOAD PUSH1 0x2 DUP3 ADD SLOAD PUSH1 0x40 MLOAD PUSH1 0x1 PUSH1 0x1 PUSH1 0xA0 SHL SUB SWAP1 SWAP3 AND SWAP2 DUP2 ISZERO PUSH2 0x8FC MUL SWAP2 SWAP1 PUSH1 0x0 DUP2 DUP2 DUP2 DUP6 DUP9 DUP9 CALL SWAP4 POP POP POP POP ISZERO DUP1 ISZERO PUSH2 0x8FA JUMPI RETURNDATASIZE PUSH1 0x0 DUP1 RETURNDATACOPY RETURNDATASIZE PUSH1 0x0 REVERT JUMPDEST POP JUMPDEST PUSH1 0x0 DUP2 PUSH1 0x3 ADD SLOAD GT DUP1 ISZERO PUSH2 0x91C JUMPI POP PUSH1 0x1 DUP2 ADD SLOAD PUSH1 0x1 PUSH1 0x1 PUSH1 0xA0 SHL SUB AND CALLER EQ JUMPDEST DUP1 ISZERO PUSH2 0x940 JUMPI POP PUSH1 0x1 PUSH1 0x6 DUP3 ADD SLOAD PUSH1 0xFF AND PUSH1 0x4 DUP2 GT ISZERO PUSH2 0x93E JUMPI PUSH2 0x93E PUSH2 0xE9A JUMP JUMPDEST EQ JUMPDEST ISZERO PUSH2 0x987 JUMPI PUSH1 0x1 DUP2 ADD SLOAD PUSH1 0x3 DUP3 ADD SLOAD PUSH1 0x40 MLOAD PUSH1 0x1 PUSH1 0x1 PUSH1 0xA0 SHL SUB SWAP1 SWAP3 AND SWAP2 DUP2 ISZERO PUSH2 0x8FC MUL SWAP2 SWAP1 PUSH1 0x0 DUP2 DUP2 DUP2 DUP6 DUP9 DUP9 CALL SWAP4 POP POP POP POP ISZERO DUP1 ISZERO PUSH2 0x985 JUMPI RETURNDATASIZE PUSH1 0x0 DUP1 RETURNDATACOPY RETURNDATASIZE PUSH1 0x0 REVERT JUMPDEST POP JUMPDEST PUSH1 0x40 MLOAD CALLER SWAP1 DUP6 SWAP1 PUSH32 0xC9660176D761DBCAB77C697281268E30DFFB9A42CAFAFCBE4E3A58FC44496E32 SWAP1 PUSH1 0x0 SWAP1 LOG3 POP POP POP POP JUMP JUMPDEST PUSH1 0x0 PUSH1 0x1 PUSH1 0x1 PUSH1 0xA0 SHL SUB DUP8 AND PUSH2 0xA0B JUMPI PUSH1 0x40 MLOAD PUSH3 0x461BCD PUSH1 0xE5 SHL DUP2 MSTORE PUSH1 0x20 PUSH1 0x4 DUP3 ADD MSTORE PUSH1 0x16 PUSH1 0x24 DUP3 ADD MSTORE PUSH22 0x496E76616C6964207061727479422061646472657373 PUSH1 0x50 SHL PUSH1 0x44 DUP3 ADD MSTORE PUSH1 0x64 ADD PUSH2 0x22F JUMP JUMPDEST CALLER PUSH1 0x1 PUSH1 0x1 PUSH1 0xA0 SHL SUB DUP9 AND SUB PUSH2 0xA63 JUMPI PUSH1 0x40 MLOAD PUSH3 0x461BCD PUSH1 0xE5 SHL DUP2 MSTORE PUSH1 0x20 PUSH1 0x4 DUP3 ADD MSTORE PUSH1 0x19 PUSH1 0x24 DUP3 ADD MSTORE PUSH32 0x43616E6E6F742073776170207769746820796F757273656C6600000000000000 PUSH1 0x44 DUP3 ADD MSTORE PUSH1 0x64 ADD PUSH2 0x22F JUMP JUMPDEST DUP6 ISZERO PUSH2 0xAB9 JUMPI DUP6 CALLVALUE LT ISZERO PUSH2 0xAB9 JUMPI PUSH1 0x40 MLOAD PUSH3 0x461BCD PUSH1 0xE5 SHL DUP2 MSTORE PUSH1 0x20 PUSH1 0x4 DUP3 ADD MSTORE PUSH1 0x1D PUSH1 0x24 DUP3 ADD MSTORE PUSH32 0x496E73756666696369656E74207061796D656E7420666F722073776170000000 PUSH1 0x44 DUP3 ADD MSTORE PUSH1 0x64 ADD PUSH2 0x22F JUMP JUMPDEST PUSH1 0x1 DUP1 SLOAD SWAP1 PUSH1 0x0 PUSH2 0xAC9 DUP4 PUSH2 0xFBF JUMP JUMPDEST SWAP1 SWAP2 SSTORE POP POP PUSH1 0x40 DUP1 MLOAD PUSH2 0x160 DUP2 ADD DUP3 MSTORE CALLER DUP2 MSTORE PUSH1 0x1 PUSH1 0x1 PUSH1 0xA0 SHL SUB DUP10 DUP2 AND PUSH1 0x20 DUP1 DUP5 ADD SWAP2 DUP3 MSTORE DUP4 DUP6 ADD DUP12 DUP2 MSTORE PUSH1 0x60 DUP6 ADD DUP12 DUP2 MSTORE PUSH1 0x80 DUP7 ADD DUP12 DUP2 MSTORE PUSH1 0xA0 DUP8 ADD DUP12 DUP2 MSTORE PUSH1 0x0 PUSH1 0xC0 DUP10 ADD DUP2 DUP2 MSTORE TIMESTAMP PUSH1 0xE0 DUP12 ADD MSTORE PUSH2 0x100 DUP11 ADD DUP3 SWAP1 MSTORE PUSH2 0x120 DUP11 ADD DUP3 SWAP1 MSTORE PUSH2 0x140 DUP11 ADD DUP14 SWAP1 MSTORE PUSH1 0x1 DUP1 SLOAD DUP4 MSTORE PUSH1 0x2 SWAP8 DUP9 SWAP1 MSTORE SWAP11 SWAP1 SWAP2 KECCAK256 DUP10 MLOAD DUP2 SLOAD SWAP1 DUP11 AND PUSH1 0x1 PUSH1 0x1 PUSH1 0xA0 SHL SUB NOT SWAP2 DUP3 AND OR DUP3 SSTORE SWAP8 MLOAD DUP2 DUP13 ADD DUP1 SLOAD SWAP2 SWAP1 SWAP11 AND SWAP9 AND SWAP8 SWAP1 SWAP8 OR SWAP1 SWAP8 SSTORE SWAP3 MLOAD SWAP4 DUP6 ADD SWAP4 SWAP1 SWAP4 SSTORE MLOAD PUSH1 0x3 DUP5 ADD SSTORE SWAP1 MLOAD PUSH1 0x4 DUP1 DUP5 ADD SWAP2 SWAP1 SWAP2 SSTORE SWAP1 MLOAD PUSH1 0x5 DUP4 ADD SSTORE SWAP2 MLOAD PUSH1 0x6 DUP3 ADD DUP1 SLOAD SWAP5 SWAP6 SWAP3 SWAP5 SWAP2 SWAP4 SWAP1 SWAP3 PUSH1 0xFF NOT SWAP3 SWAP1 SWAP3 AND SWAP2 SWAP1 DUP5 SWAP1 DUP2 GT ISZERO PUSH2 0xBB6 JUMPI PUSH2 0xBB6 PUSH2 0xE9A JUMP JUMPDEST MUL OR SWAP1 SSTORE POP PUSH1 0xE0 DUP3 ADD MLOAD PUSH1 0x7 DUP3 ADD SSTORE PUSH2 0x100 DUP3 ADD MLOAD PUSH1 0x8 DUP3 ADD SSTORE PUSH2 0x120 DUP3 ADD MLOAD PUSH1 0x9 DUP3 ADD SSTORE PUSH2 0x140 DUP3 ADD MLOAD PUSH1 0xA DUP3 ADD SWAP1 PUSH2 0xBF0 SWAP1 DUP3 PUSH2 0x106E JUMP JUMPDEST POP POP PUSH1 0x1 SLOAD PUSH1 0x40 DUP1 MLOAD DUP10 DUP2 MSTORE PUSH1 0x20 DUP2 ADD DUP10 SWAP1 MSTORE PUSH1 0x1 PUSH1 0x1 PUSH1 0xA0 SHL SUB DUP12 AND SWAP4 POP CALLER SWAP3 SWAP2 PUSH32 0xE6134DA22519BA7225B370DE70990347B82FB28A82F305A9DD0F42B7561E27B7 SWAP2 ADD PUSH1 0x40 MLOAD DUP1 SWAP2 SUB SWAP1 LOG4 POP PUSH1 0x1 SLOAD SWAP7 SWAP6 POP POP POP POP POP POP JUMP JUMPDEST PUSH1 0x2 PUSH1 0x20 DUP2 SWAP1 MSTORE PUSH1 0x0 SWAP2 DUP3 MSTORE PUSH1 0x40 SWAP1 SWAP2 KECCAK256 DUP1 SLOAD PUSH1 0x1 DUP3 ADD SLOAD SWAP3 DUP3 ADD SLOAD PUSH1 0x3 DUP4 ADD SLOAD PUSH1 0x4 DUP5 ADD SLOAD PUSH1 0x5 DUP6 ADD SLOAD PUSH1 0x6 DUP7 ADD SLOAD PUSH1 0x7 DUP8 ADD SLOAD PUSH1 0x8 DUP9 ADD SLOAD PUSH1 0x9 DUP10 ADD SLOAD PUSH1 0xA DUP11 ADD DUP1 SLOAD PUSH1 0x1 PUSH1 0x1 PUSH1 0xA0 SHL SUB SWAP11 DUP12 AND SWAP13 SWAP1 SWAP11 AND SWAP11 SWAP9 SWAP10 SWAP8 SWAP9 SWAP7 SWAP8 SWAP6 SWAP7 PUSH1 0xFF SWAP1 SWAP6 AND SWAP6 SWAP4 SWAP5 SWAP3 SWAP4 SWAP2 SWAP3 SWAP2 PUSH2 0xCBE SWAP1 PUSH2 0xFE6 JUMP JUMPDEST DUP1 PUSH1 0x1F ADD PUSH1 0x20 DUP1 SWAP2 DIV MUL PUSH1 0x20 ADD PUSH1 0x40 MLOAD SWAP1 DUP2 ADD PUSH1 0x40 MSTORE DUP1 SWAP3 SWAP2 SWAP1 DUP2 DUP2 MSTORE PUSH1 0x20 ADD DUP3 DUP1 SLOAD PUSH2 0xCEA SWAP1 PUSH2 0xFE6 JUMP JUMPDEST DUP1 ISZERO PUSH2 0xD37 JUMPI DUP1 PUSH1 0x1F LT PUSH2 0xD0C JUMPI PUSH2 0x100 DUP1 DUP4 SLOAD DIV MUL DUP4 MSTORE SWAP2 PUSH1 0x20 ADD SWAP2 PUSH2 0xD37 JUMP JUMPDEST DUP3 ADD SWAP2 SWAP1 PUSH1 0x0 MSTORE PUSH1 0x20 PUSH1 0x0 KECCAK256 SWAP1 JUMPDEST DUP2 SLOAD DUP2 MSTORE SWAP1 PUSH1 0x1 ADD SWAP1 PUSH1 0x20 ADD DUP1 DUP4 GT PUSH2 0xD1A JUMPI DUP3 SWAP1 SUB PUSH1 0x1F AND DUP3 ADD SWAP2 JUMPDEST POP POP POP POP POP SWAP1 POP DUP12 JUMP JUMPDEST PUSH1 0x0 PUSH1 0x20 DUP3 DUP5 SUB SLT ISZERO PUSH2 0xD53 JUMPI PUSH1 0x0 DUP1 REVERT JUMPDEST POP CALLDATALOAD SWAP2 SWAP1 POP JUMP JUMPDEST PUSH1 0x0 DUP1 PUSH1 0x40 DUP4 DUP6 SUB SLT ISZERO PUSH2 0xD6D JUMPI PUSH1 0x0 DUP1 REVERT JUMPDEST DUP3 CALLDATALOAD SWAP2 POP PUSH1 0x20 DUP4 ADD CALLDATALOAD DUP1 ISZERO ISZERO DUP2 EQ PUSH2 0xD84 JUMPI PUSH1 0x0 DUP1 REVERT JUMPDEST DUP1 SWAP2 POP POP SWAP3 POP SWAP3 SWAP1 POP JUMP JUMPDEST PUSH4 0x4E487B71 PUSH1 0xE0 SHL PUSH1 0x0 MSTORE PUSH1 0x41 PUSH1 0x4 MSTORE PUSH1 0x24 PUSH1 0x0 REVERT JUMPDEST PUSH1 0x0 DUP1 PUSH1 0x0 DUP1 PUSH1 0x0 DUP1 PUSH1 0xC0 DUP8 DUP10 SUB SLT ISZERO PUSH2 0xDBE JUMPI PUSH1 0x0 DUP1 REVERT JUMPDEST DUP7 CALLDATALOAD PUSH1 0x1 PUSH1 0x1 PUSH1 0xA0 SHL SUB DUP2 AND DUP2 EQ PUSH2 0xDD5 JUMPI PUSH1 0x0 DUP1 REVERT JUMPDEST SWAP6 POP PUSH1 0x20 DUP8 ADD CALLDATALOAD SWAP5 POP PUSH1 0x40 DUP8 ADD CALLDATALOAD SWAP4 POP PUSH1 0x60 DUP8 ADD CALLDATALOAD SWAP3 POP PUSH1 0x80 DUP8 ADD CALLDATALOAD SWAP2 POP PUSH1 0xA0 DUP8 ADD CALLDATALOAD PUSH8 0xFFFFFFFFFFFFFFFF DUP1 DUP3 GT ISZERO PUSH2 0xE0E JUMPI PUSH1 0x0 DUP1 REVERT JUMPDEST DUP2 DUP10 ADD SWAP2 POP DUP10 PUSH1 0x1F DUP4 ADD SLT PUSH2 0xE22 JUMPI PUSH1 0x0 DUP1 REVERT JUMPDEST DUP2 CALLDATALOAD DUP2 DUP2 GT ISZERO PUSH2 0xE34 JUMPI PUSH2 0xE34 PUSH2 0xD8F JUMP JUMPDEST PUSH1 0x40 MLOAD PUSH1 0x1F DUP3 ADD PUSH1 0x1F NOT SWAP1 DUP2 AND PUSH1 0x3F ADD AND DUP2 ADD SWAP1 DUP4 DUP3 GT DUP2 DUP4 LT OR ISZERO PUSH2 0xE5C JUMPI PUSH2 0xE5C PUSH2 0xD8F JUMP JUMPDEST DUP2 PUSH1 0x40 MSTORE DUP3 DUP2 MSTORE DUP13 PUSH1 0x20 DUP5 DUP8 ADD ADD GT ISZERO PUSH2 0xE75 JUMPI PUSH1 0x0 DUP1 REVERT JUMPDEST DUP3 PUSH1 0x20 DUP7 ADD PUSH1 0x20 DUP4 ADD CALLDATACOPY PUSH1 0x0 PUSH1 0x20 DUP5 DUP4 ADD ADD MSTORE DUP1 SWAP6 POP POP POP POP POP POP SWAP3 SWAP6 POP SWAP3 SWAP6 POP SWAP3 SWAP6 JUMP JUMPDEST PUSH4 0x4E487B71 PUSH1 0xE0 SHL PUSH1 0x0 MSTORE PUSH1 0x21 PUSH1 0x4 MSTORE PUSH1 0x24 PUSH1 0x0 REVERT JUMPDEST PUSH1 0x0 DUP2 MLOAD DUP1 DUP5 MSTORE PUSH1 0x0 JUMPDEST DUP2 DUP2 LT ISZERO PUSH2 0xED6 JUMPI PUSH1 0x20 DUP2 DUP6 ADD DUP2 ADD MLOAD DUP7 DUP4 ADD DUP3 ADD MSTORE ADD PUSH2 0xEBA JUMP JUMPDEST POP PUSH1 0x0 PUSH1 0x20 DUP3 DUP7 ADD ADD MSTORE PUSH1 0x20 PUSH1 0x1F NOT PUSH1 0x1F DUP4 ADD AND DUP6 ADD ADD SWAP2 POP POP SWAP3 SWAP2 POP POP JUMP JUMPDEST PUSH1 0x1 PUSH1 0x1 PUSH1 0xA0 SHL SUB DUP13 DUP2 AND DUP3 MSTORE DUP12 AND PUSH1 0x20 DUP3 ADD MSTORE PUSH1 0x40 DUP2 ADD DUP11 SWAP1 MSTORE PUSH1 0x60 DUP2 ADD DUP10 SWAP1 MSTORE PUSH1 0x80 DUP2 ADD DUP9 SWAP1 MSTORE PUSH1 0xA0 DUP2 ADD DUP8 SWAP1 MSTORE PUSH1 0x0 PUSH2 0x160 PUSH1 0x5 DUP9 LT PUSH2 0xF49 JUMPI PUSH4 0x4E487B71 PUSH1 0xE0 SHL PUSH1 0x0 MSTORE PUSH1 0x21 PUSH1 0x4 MSTORE PUSH1 0x24 PUSH1 0x0 REVERT JUMPDEST DUP8 PUSH1 0xC0 DUP5 ADD MSTORE DUP7 PUSH1 0xE0 DUP5 ADD MSTORE DUP6 PUSH2 0x100 DUP5 ADD MSTORE DUP5 PUSH2 0x120 DUP5 ADD MSTORE DUP1 PUSH2 0x140 DUP5 ADD MSTORE PUSH2 0xF76 DUP2 DUP5 ADD DUP6 PUSH2 0xEB0 JUMP JUMPDEST SWAP15 SWAP14 POP POP POP POP POP POP POP POP POP POP POP POP POP POP JUMP JUMPDEST PUSH1 0x20 DUP1 DUP3 MSTORE PUSH1 0x18 SWAP1 DUP3 ADD MSTORE PUSH32 0x4E6F74206120706172747920746F207468697320737761700000000000000000 PUSH1 0x40 DUP3 ADD MSTORE PUSH1 0x60 ADD SWAP1 JUMP JUMPDEST PUSH1 0x0 PUSH1 0x1 DUP3 ADD PUSH2 0xFDF JUMPI PUSH4 0x4E487B71 PUSH1 0xE0 SHL PUSH1 0x0 MSTORE PUSH1 0x11 PUSH1 0x4 MSTORE PUSH1 0x24 PUSH1 0x0 REVERT JUMPDEST POP PUSH1 0x1 ADD SWAP1 JUMP JUMPDEST PUSH1 0x1 DUP2 DUP2 SHR SWAP1 DUP3 AND DUP1 PUSH2 0xFFA JUMPI PUSH1 0x7F DUP3 AND SWAP2 POP JUMPDEST PUSH1 0x20 DUP3 LT DUP2 SUB PUSH2 0x101A JUMPI PUSH4 0x4E487B71 PUSH1 0xE0 SHL PUSH1 0x0 MSTORE PUSH1 0x22 PUSH1 0x4 MSTORE PUSH1 0x24 PUSH1 0x0 REVERT JUMPDEST POP SWAP2 SWAP1 POP JUMP JUMPDEST PUSH1 0x1F DUP3 GT ISZERO PUSH2 0x6A6 JUMPI PUSH1 0x0 DUP2 DUP2 MSTORE PUSH1 0x20 DUP2 KECCAK256 PUSH1 0x1F DUP6 ADD PUSH1 0x5 SHR DUP2 ADD PUSH1 0x20 DUP7 LT ISZERO PUSH2 0x1047 JUMPI POP DUP1 JUMPDEST PUSH1 0x1F DUP6 ADD PUSH1 0x5 SHR DUP3 ADD SWAP2 POP JUMPDEST DUP2 DUP2 LT ISZERO PUSH2 0x1066 JUMPI DUP3 DUP2 SSTORE PUSH1 0x1 ADD PUSH2 0x1053 JUMP JUMPDEST POP POP POP POP POP POP JUMP JUMPDEST DUP2 MLOAD PUSH8 0xFFFFFFFFFFFFFFFF DUP2 GT ISZERO PUSH2 0x1088 JUMPI PUSH2 0x1088 PUSH2 0xD8F JUMP JUMPDEST PUSH2 0x109C DUP2 PUSH2 0x1096 DUP5 SLOAD PUSH2 0xFE6 JUMP JUMPDEST DUP5 PUSH2 0x1020 JUMP JUMPDEST PUSH1 0x20 DUP1 PUSH1 0x1F DUP4 GT PUSH1 0x1 DUP2 EQ PUSH2 0x10D1 JUMPI PUSH1 0x0 DUP5 ISZERO PUSH2 0x10B9 JUMPI POP DUP6 DUP4 ADD MLOAD JUMPDEST PUSH1 0x0 NOT PUSH1 0x3 DUP7 SWAP1 SHL SHR NOT AND PUSH1 0x1 DUP6 SWAP1 SHL OR DUP6 SSTORE PUSH2 0x1066 JUMP JUMPDEST PUSH1 0x0 DUP6 DUP2 MSTORE PUSH1 0x20 DUP2 KECCAK256 PUSH1 0x1F NOT DUP7 AND SWAP2 JUMPDEST DUP3 DUP2 LT ISZERO PUSH2 0x1100 JUMPI DUP9 DUP7 ADD MLOAD DUP3 SSTORE SWAP5 DUP5 ADD SWAP5 PUSH1 0x1 SWAP1 SWAP2 ADD SWAP1 DUP5 ADD PUSH2 0x10E1 JUMP JUMPDEST POP DUP6 DUP3 LT ISZERO PUSH2 0x111E JUMPI DUP8 DUP6 ADD MLOAD PUSH1 0x0 NOT PUSH1 0x3 DUP9 SWAP1 SHL PUSH1 0xF8 AND SHR NOT AND DUP2 SSTORE JUMPDEST POP POP POP POP POP PUSH1 0x1 SWAP1 DUP2 SHL ADD SWAP1 SSTORE POP JUMP INVALID LOG2 PUSH5 0x6970667358 0x22 SLT KECCAK256 PUSH20 0x89A1A3A18EBD29CCCDB50CA805D857FCB57A79A0 0xF8 0xE9 0x2D 0xB9 CALLER 0xD9 PUSH26 0xFDAA778764736F6C634300081400330000000000000000000000 "},"methodIdentifiers":{"acceptSwap(uint256)":"1bf33004","admin()":"f851a440","cancelSwap(uint256)":"54d6a2b7","completeSwap(uint256)":"331ccd4c","createSwap(address,uint256,uint256,uint256,uint256,string)":"8c43d14b","disputeSwap(uint256)":"4b6c1252","resolveDispute(uint256,bool)":"34b25ee2","swapCounter()":"33bce8c3","swaps(uint256)":"f09c5829"}}}}}