{
  "_format": "hh-sol-artifact-1",
  "contractName": "AlbashSwapEscrow",
  "sourceName": "contracts/AlbashSwapEscrow.sol",
  "abi": [
    {
      "inputs": [],
      "stateMutability": "nonpayable",
      "type": "constructor"
    },
    {
      "anonymous": false,
      "inputs": [
        {
          "indexed": true,
          "internalType": "uint256",
          "name": "swapId",
          "type": "uint256"
        }
      ],
      "name": "SwapAccepted",
      "type": "event"
    },
    {
      "anonymous": false,
      "inputs": [
        {
          "indexed": true,
          "internalType": "uint256",
          "name": "swapId",
          "type": "uint256"
        },
        {
          "indexed": true,
          "internalType": "address",
          "name": "cancelledBy",
          "type": "address"
        }
      ],
      "name": "SwapCancelled",
      "type": "event"
    },
    {
      "anonymous": false,
      "inputs": [
        {
          "indexed": true,
          "internalType": "uint256",
          "name": "swapId",
          "type": "uint256"
        }
      ],
      "name": "SwapCompleted",
      "type": "event"
    },
    {
      "anonymous": false,
      "inputs": [
        {
          "indexed": true,
          "internalType": "uint256",
          "name": "swapId",
          "type": "uint256"
        },
        {
          "indexed": true,
          "internalType": "address",
          "name": "partyA",
          "type": "address"
        },
        {
          "indexed": true,
          "internalType": "address",
          "name": "partyB",
          "type": "address"
        },
        {
          "indexed": false,
          "internalType": "uint256",
          "name": "valueA",
          "type": "uint256"
        },
        {
          "indexed": false,
          "internalType": "uint256",
          "name": "valueB",
          "type": "uint256"
        }
      ],
      "name": "SwapCreated",
      "type": "event"
    },
    {
      "anonymous": false,
      "inputs": [
        {
          "indexed": true,
          "internalType": "uint256",
          "name": "swapId",
          "type": "uint256"
        },
        {
          "indexed": true,
          "internalType": "address",
          "name": "disputedBy",
          "type": "address"
        }
      ],
      "name": "SwapDisputed",
      "type": "event"
    },
    {
      "inputs": [
        {
          "internalType": "uint256",
          "name": "swapId",
          "type": "uint256"
        }
      ],
      "name": "acceptSwap",
      "outputs": [],
      "stateMutability": "payable",
      "type": "function"
    },
    {
      "inputs": [],
      "name": "admin",
      "outputs": [
        {
          "internalType": "address",
          "name": "",
          "type": "address"
        }
      ],
      "stateMutability": "view",
      "type": "function"
    },
    {
      "inputs": [
        {
          "internalType": "uint256",
          "name": "swapId",
          "type": "uint256"
        }
      ],
      "name": "cancelSwap",
      "outputs": [],
      "stateMutability": "nonpayable",
      "type": "function"
    },
    {
      "inputs": [
        {
          "internalType": "uint256",
          "name": "swapId",
          "type": "uint256"
        }
      ],
      "name": "completeSwap",
      "outputs": [],
      "stateMutability": "nonpayable",
      "type": "function"
    },
    {
      "inputs": [
        {
          "internalType": "address",
          "name": "partyB",
          "type": "address"
        },
        {
          "internalType": "uint256",
          "name": "valueA",
          "type": "uint256"
        },
        {
          "internalType": "uint256",
          "name": "valueB",
          "type": "uint256"
        },
        {
          "internalType": "uint256",
          "name": "tokenIdA",
          "type": "uint256"
        },
        {
          "internalType": "uint256",
          "name": "tokenIdB",
          "type": "uint256"
        },
        {
          "internalType": "string",
          "name": "metadataURI",
          "type": "string"
        }
      ],
      "name": "createSwap",
      "outputs": [
        {
          "internalType": "uint256",
          "name": "",
          "type": "uint256"
        }
      ],
      "stateMutability": "payable",
      "type": "function"
    },
    {
      "inputs": [
        {
          "internalType": "uint256",
          "name": "swapId",
          "type": "uint256"
        }
      ],
      "name": "disputeSwap",
      "outputs": [],
      "stateMutability": "nonpayable",
      "type": "function"
    },
    {
      "inputs": [
        {
          "internalType": "uint256",
          "name": "swapId",
          "type": "uint256"
        },
        {
          "internalType": "bool",
          "name": "complete",
          "type": "bool"
        }
      ],
      "name": "resolveDispute",
      "outputs": [],
      "stateMutability": "nonpayable",
      "type": "function"
    },
    {
      "inputs": [],
      "name": "swapCounter",
      "outputs": [
        {
          "internalType": "uint256",
          "name": "",
          "type": "uint256"
        }
      ],
      "stateMutability": "view",
      "type": "function"
    },
    {
      "inputs": [
        {
          "internalType": "uint256",
          "name": "",
          "type": "uint256"
        }
      ],
      "name": "swaps",
      "outputs": [
        {
          "internalType": "address",
          "name": "partyA",
          "type": "address"
        },
        {
          "internalType": "address",
          "name": "partyB",
          "type": "address"
        },
        {
          "internalType": "uint256",
          "name": "valueA",
          "type": "uint256"
        },
        {
          "internalType": "uint256",
          "name": "valueB",
          "type": "uint256"
        },
        {
          "internalType": "uint256",
          "name": "tokenIdA",
          "type": "uint256"
        },
        {
          "internalType": "uint256",
          "name": "tokenIdB",
          "type": "uint256"
        },
        {
          "internalType": "enum AlbashSwapEscrow.SwapStatus",
          "name": "status",
          "type": "uint8"
        },
        {
          "internalType": "uint256",
          "name": "createdAt",
          "type": "uint256"
        },
        {
          "internalType": "uint256",
          "name": "acceptedAt",
          "type": "uint256"
        },
        {
          "internalType": "uint256",
          "name": "completedAt",
          "type": "uint256"
        },
        {
          "internalType": "string",
          "name": "metadataURI",
          "type": "string"
        }
      ],
      "stateMutability": "view",
      "type": "function"
    }
  ],
  "bytecode": "0x608060405234801561001057600080fd5b50600080546001600160a01b03191633179055611164806100326000396000f3fe6080604052600436106100865760003560e01c80634b6c1252116100595780634b6c12521461010957806354d6a2b7146101295780638c43d14b14610149578063f09c58291461015c578063f851a4401461019357600080fd5b80631bf330041461008b578063331ccd4c146100a057806333bce8c3146100c057806334b25ee2146100e9575b600080fd5b61009e610099366004610d41565b6101cb565b005b3480156100ac57600080fd5b5061009e6100bb366004610d41565b61032d565b3480156100cc57600080fd5b506100d660015481565b6040519081526020015b60405180910390f35b3480156100f557600080fd5b5061009e610104366004610d5a565b610562565b34801561011557600080fd5b5061009e610124366004610d41565b6106ab565b34801561013557600080fd5b5061009e610144366004610d41565b6107b4565b6100d6610157366004610da5565b6109ba565b34801561016857600080fd5b5061017c610177366004610d41565b610c4b565b6040516100e09b9a99989796959493929190610ef6565b34801561019f57600080fd5b506000546101b3906001600160a01b031681565b6040516001600160a01b0390911681526020016100e0565b600081815260026020526040812090600682015460ff1660048111156101f3576101f3610e9a565b146102385760405162461bcd60e51b815260206004820152601060248201526f53776170206e6f742070656e64696e6760801b60448201526064015b60405180910390fd5b60018101546001600160a01b0316331461028b5760405162461bcd60e51b81526020600482015260146024820152734e6f74207468652074617267657420706172747960601b604482015260640161022f565b6003810154156102e95780600301543410156102e95760405162461bcd60e51b815260206004820152601d60248201527f496e73756666696369656e74207061796d656e7420666f722073776170000000604482015260640161022f565b60068101805460ff1916600117905542600882015560405182907f7080e652b0056fb27597071d591828292afd96fd17bc428ff26dfcca4acc523090600090a25050565b600081815260026020526040902080548291906001600160a01b0316331480610362575060018101546001600160a01b031633145b61037e5760405162461bcd60e51b815260040161022f90610f88565b60008381526002602052604090206001600682015460ff1660048111156103a7576103a7610e9a565b146103e85760405162461bcd60e51b815260206004820152601160248201527014ddd85c081b9bdd081858d8d95c1d1959607a1b604482015260640161022f565b60068101805460ff1916600290811790915542600983015581015415801590610415575060008160030154115b1561049e57600181015460028201546040516001600160a01b039092169181156108fc0291906000818181858888f1935050505015801561045a573d6000803e3d6000fd5b50805460038201546040516001600160a01b039092169181156108fc0291906000818181858888f19350505050158015610498573d6000803e3d6000fd5b50610531565b6002810154156104e857600181015460028201546040516001600160a01b039092169181156108fc0291906000818181858888f19350505050158015610498573d6000803e3d6000fd5b60038101541561053157805460038201546040516001600160a01b039092169181156108fc0291906000818181858888f1935050505015801561052f573d6000803e3d6000fd5b505b60405184907f02f857175b5562dc8e8fe1cc6d39215bf823a07a685f52fba82f1e637d41851390600090a250505050565b6000546001600160a01b031633146105a85760405162461bcd60e51b81526020600482015260096024820152682737ba1030b236b4b760b91b604482015260640161022f565b60008281526002602052604090206004600682015460ff1660048111156105d1576105d1610e9a565b146106125760405162461bcd60e51b815260206004820152601160248201527014ddd85c081b9bdd08191a5cdc1d5d1959607a1b604482015260640161022f565b811561065d5760068101805460ff1916600217905542600982015560405183907f02f857175b5562dc8e8fe1cc6d39215bf823a07a685f52fba82f1e637d41851390600090a2505050565b60068101805460ff19166003179055600080546040516001600160a01b039091169185917fc9660176d761dbcab77c697281268e30dffb9a42cafafcbe4e3a58fc44496e329190a35b505050565b600081815260026020526040902080548291906001600160a01b03163314806106e0575060018101546001600160a01b031633145b6106fc5760405162461bcd60e51b815260040161022f90610f88565b60008381526002602052604090206001600682015460ff16600481111561072557610725610e9a565b146107725760405162461bcd60e51b815260206004820181905260248201527f53776170206d75737420626520616363657074656420746f2064697370757465604482015260640161022f565b60068101805460ff19166004179055604051339085907f4d46047ef020645d46d71e7fecf96ee21e0cf31313412e3b609050eca2fb35d990600090a350505050565b600081815260026020526040902080548291906001600160a01b03163314806107e9575060018101546001600160a01b031633145b6108055760405162461bcd60e51b815260040161022f90610f88565b600083815260026020526040812090600682015460ff16600481111561082d5761082d610e9a565b148061085157506001600682015460ff16600481111561084f5761084f610e9a565b145b61088d5760405162461bcd60e51b815260206004820152600d60248201526c10d85b9b9bdd0818d85b98d95b609a1b604482015260640161022f565b60068101805460ff191660031790556002810154158015906108b8575080546001600160a01b031633145b156108fc57805460028201546040516001600160a01b039092169181156108fc0291906000818181858888f193505050501580156108fa573d6000803e3d6000fd5b505b6000816003015411801561091c575060018101546001600160a01b031633145b801561094057506001600682015460ff16600481111561093e5761093e610e9a565b145b1561098757600181015460038201546040516001600160a01b039092169181156108fc0291906000818181858888f19350505050158015610985573d6000803e3d6000fd5b505b604051339085907fc9660176d761dbcab77c697281268e30dffb9a42cafafcbe4e3a58fc44496e3290600090a350505050565b60006001600160a01b038716610a0b5760405162461bcd60e51b8152602060048201526016602482015275496e76616c696420706172747942206164647265737360501b604482015260640161022f565b336001600160a01b03881603610a635760405162461bcd60e51b815260206004820152601960248201527f43616e6e6f742073776170207769746820796f757273656c6600000000000000604482015260640161022f565b8515610ab95785341015610ab95760405162461bcd60e51b815260206004820152601d60248201527f496e73756666696369656e74207061796d656e7420666f722073776170000000604482015260640161022f565b60018054906000610ac983610fbf565b909155505060408051610160810182523381526001600160a01b0389811660208084019182528385018b8152606085018b8152608086018b815260a087018b8152600060c089018181524260e08b01526101008a018290526101208a018290526101408a018d90526001805483526002978890529a90912089518154908a166001600160a01b03199182161782559751818c01805491909a169816979097179097559251938501939093555160038401559051600480840191909155905160058301559151600682018054949592949193909260ff199290921691908490811115610bb657610bb6610e9a565b021790555060e0820151600782015561010082015160088201556101208201516009820155610140820151600a820190610bf0908261106e565b505060015460408051898152602081018990526001600160a01b038b1693503392917fe6134da22519ba7225b370de70990347b82fb28a82f305a9dd0f42b7561e27b7910160405180910390a4506001549695505050505050565b600260208190526000918252604090912080546001820154928201546003830154600484015460058501546006860154600787015460088801546009890154600a8a0180546001600160a01b039a8b169c909a169a989997989697959660ff9095169593949293919291610cbe90610fe6565b80601f0160208091040260200160405190810160405280929190818152602001828054610cea90610fe6565b8015610d375780601f10610d0c57610100808354040283529160200191610d37565b820191906000526020600020905b815481529060010190602001808311610d1a57829003601f168201915b505050505090508b565b600060208284031215610d5357600080fd5b5035919050565b60008060408385031215610d6d57600080fd5b8235915060208301358015158114610d8457600080fd5b809150509250929050565b634e487b7160e01b600052604160045260246000fd5b60008060008060008060c08789031215610dbe57600080fd5b86356001600160a01b0381168114610dd557600080fd5b95506020870135945060408701359350606087013592506080870135915060a087013567ffffffffffffffff80821115610e0e57600080fd5b818901915089601f830112610e2257600080fd5b813581811115610e3457610e34610d8f565b604051601f8201601f19908116603f01168101908382118183101715610e5c57610e5c610d8f565b816040528281528c6020848701011115610e7557600080fd5b8260208601602083013760006020848301015280955050505050509295509295509295565b634e487b7160e01b600052602160045260246000fd5b6000815180845260005b81811015610ed657602081850181015186830182015201610eba565b506000602082860101526020601f19601f83011685010191505092915050565b6001600160a01b038c811682528b166020820152604081018a9052606081018990526080810188905260a08101879052600061016060058810610f4957634e487b7160e01b600052602160045260246000fd5b8760c08401528660e0840152856101008401528461012084015280610140840152610f7681840185610eb0565b9e9d5050505050505050505050505050565b60208082526018908201527f4e6f74206120706172747920746f207468697320737761700000000000000000604082015260600190565b600060018201610fdf57634e487b7160e01b600052601160045260246000fd5b5060010190565b600181811c90821680610ffa57607f821691505b60208210810361101a57634e487b7160e01b600052602260045260246000fd5b50919050565b601f8211156106a657600081815260208120601f850160051c810160208610156110475750805b601f850160051c820191505b8181101561106657828155600101611053565b505050505050565b815167ffffffffffffffff81111561108857611088610d8f565b61109c816110968454610fe6565b84611020565b602080601f8311600181146110d157600084156110b95750858301515b600019600386901b1c1916600185901b178555611066565b600085815260208120601f198616915b82811015611100578886015182559484019460019091019084016110e1565b508582101561111e5787850151600019600388901b60f8161c191681555b5050505050600190811b0190555056fea26469706673582212207389a1a3a18ebd29cccdb50ca805d857fcb57a79a0f8e92db933d979fdaa778764736f6c63430008140033",
  "linkReferences": {},
  "deployedLinkReferences": {}
}