{
  "_format": "hh-sol-artifact-1",
  "contractName": "AlbashMarketplace",
  "sourceName": "contracts/AlbashMarketplace.sol",
  "abi": [
    {
      "inputs": [
        {
          "internalType": "address",
          "name": "_accessControl",
          "type": "address"
        },
        {
          "internalType": "address",
          "name": "_nftContract",
          "type": "address"
        }
      ],
      "stateMutability": "nonpayable",
      "type": "constructor"
    },
    {
      "anonymous": false,
      "inputs": [
        {
          "indexed": true,
          "internalType": "uint256",
          "name": "listingId",
          "type": "uint256"
        },
        {
          "indexed": true,
          "internalType": "uint256",
          "name": "tokenId",
          "type": "uint256"
        },
        {
          "indexed": true,
          "internalType": "address",
          "name": "seller",
          "type": "address"
        },
        {
          "indexed": false,
          "internalType": "uint256",
          "name": "price",
          "type": "uint256"
        }
      ],
      "name": "Listed",
      "type": "event"
    },
    {
      "anonymous": false,
      "inputs": [
        {
          "indexed": true,
          "internalType": "uint256",
          "name": "listingId",
          "type": "uint256"
        }
      ],
      "name": "ListingCancelled",
      "type": "event"
    },
    {
      "anonymous": false,
      "inputs": [
        {
          "indexed": true,
          "internalType": "uint256",
          "name": "listingId",
          "type": "uint256"
        },
        {
          "indexed": false,
          "internalType": "uint256",
          "name": "newPrice",
          "type": "uint256"
        }
      ],
      "name": "ListingUpdated",
      "type": "event"
    },
    {
      "anonymous": false,
      "inputs": [
        {
          "indexed": false,
          "internalType": "uint256",
          "name": "oldFee",
          "type": "uint256"
        },
        {
          "indexed": false,
          "internalType": "uint256",
          "name": "newFee",
          "type": "uint256"
        }
      ],
      "name": "PlatformFeeUpdated",
      "type": "event"
    },
    {
      "anonymous": false,
      "inputs": [
        {
          "indexed": true,
          "internalType": "uint256",
          "name": "listingId",
          "type": "uint256"
        },
        {
          "indexed": true,
          "internalType": "uint256",
          "name": "tokenId",
          "type": "uint256"
        },
        {
          "indexed": true,
          "internalType": "address",
          "name": "buyer",
          "type": "address"
        },
        {
          "indexed": false,
          "internalType": "uint256",
          "name": "price",
          "type": "uint256"
        }
      ],
      "name": "Sold",
      "type": "event"
    },
    {
      "inputs": [],
      "name": "accessControl",
      "outputs": [
        {
          "internalType": "contract AlbashAccessControl",
          "name": "",
          "type": "address"
        }
      ],
      "stateMutability": "view",
      "type": "function"
    },
    {
      "inputs": [],
      "name": "admin",
      "outputs": [
        {
          "internalType": "address",
          "name": "",
          "type": "address"
        }
      ],
      "stateMutability": "view",
      "type": "function"
    },
    {
      "inputs": [
        {
          "internalType": "uint256",
          "name": "listingId",
          "type": "uint256"
        }
      ],
      "name": "buyItem",
      "outputs": [],
      "stateMutability": "payable",
      "type": "function"
    },
    {
      "inputs": [
        {
          "internalType": "uint256",
          "name": "listingId",
          "type": "uint256"
        }
      ],
      "name": "cancelListing",
      "outputs": [],
      "stateMutability": "nonpayable",
      "type": "function"
    },
    {
      "inputs": [
        {
          "internalType": "uint256",
          "name": "tokenId",
          "type": "uint256"
        },
        {
          "internalType": "uint256",
          "name": "price",
          "type": "uint256"
        }
      ],
      "name": "listItem",
      "outputs": [],
      "stateMutability": "nonpayable",
      "type": "function"
    },
    {
      "inputs": [],
      "name": "listingCounter",
      "outputs": [
        {
          "internalType": "uint256",
          "name": "",
          "type": "uint256"
        }
      ],
      "stateMutability": "view",
      "type": "function"
    },
    {
      "inputs": [
        {
          "internalType": "uint256",
          "name": "",
          "type": "uint256"
        }
      ],
      "name": "listings",
      "outputs": [
        {
          "internalType": "address",
          "name": "seller",
          "type": "address"
        },
        {
          "internalType": "uint256",
          "name": "price",
          "type": "uint256"
        },
        {
          "internalType": "bool",
          "name": "active",
          "type": "bool"
        },
        {
          "internalType": "uint256",
          "name": "tokenId",
          "type": "uint256"
        },
        {
          "internalType": "uint256",
          "name": "createdAt",
          "type": "uint256"
        }
      ],
      "stateMutability": "view",
      "type": "function"
    },
    {
      "inputs": [],
      "name": "nftContract",
      "outputs": [
        {
          "internalType": "contract AlbashNFT",
          "name": "",
          "type": "address"
        }
      ],
      "stateMutability": "view",
      "type": "function"
    },
    {
      "inputs": [],
      "name": "platformFee",
      "outputs": [
        {
          "internalType": "uint256",
          "name": "",
          "type": "uint256"
        }
      ],
      "stateMutability": "view",
      "type": "function"
    },
    {
      "inputs": [
        {
          "internalType": "uint256",
          "name": "_fee",
          "type": "uint256"
        }
      ],
      "name": "setPlatformFee",
      "outputs": [],
      "stateMutability": "nonpayable",
      "type": "function"
    },
    {
      "inputs": [
        {
          "internalType": "uint256",
          "name": "",
          "type": "uint256"
        }
      ],
      "name": "tokenToListing",
      "outputs": [
        {
          "internalType": "uint256",
          "name": "",
          "type": "uint256"
        }
      ],
      "stateMutability": "view",
      "type": "function"
    },
    {
      "inputs": [
        {
          "internalType": "uint256",
          "name": "listingId",
          "type": "uint256"
        },
        {
          "internalType": "uint256",
          "name": "newPrice",
          "type": "uint256"
        }
      ],
      "name": "updateListingPrice",
      "outputs": [],
      "stateMutability": "nonpayable",
      "type": "function"
    },
    {
      "inputs": [],
      "name": "withdrawFees",
      "outputs": [],
      "stateMutability": "nonpayable",
      "type": "function"
    }
  ],
  "bytecode": "0x6080604052600560035534801561001557600080fd5b50604051610d8f380380610d8f8339810160408190526100349161008c565b600280546001600160a01b03199081163317909155600080546001600160a01b03948516908316179055600180549290931691161790556100bf565b80516001600160a01b038116811461008757600080fd5b919050565b6000806040838503121561009f57600080fd5b6100a883610070565b91506100b660208401610070565b90509250929050565b610cc1806100ce6000396000f3fe6080604052600436106100c25760003560e01c8063883efa671161007f578063de74e57b11610059578063de74e57b146101f5578063e7fb74c714610286578063ea7eaec614610299578063f851a440146102c657600080fd5b8063883efa6714610195578063c4604943146101b5578063d56d229d146101d557600080fd5b806312e8e2c3146100c757806313007d55146100e957806326232a2e14610126578063305a67a81461014a578063476343ee1461016a5780636c2c9c7d1461017f575b600080fd5b3480156100d357600080fd5b506100e76100e2366004610b51565b6102e6565b005b3480156100f557600080fd5b50600054610109906001600160a01b031681565b6040516001600160a01b0390911681526020015b60405180910390f35b34801561013257600080fd5b5061013c60035481565b60405190815260200161011d565b34801561015657600080fd5b506100e7610165366004610b51565b6103bf565b34801561017657600080fd5b506100e7610472565b34801561018b57600080fd5b5061013c60065481565b3480156101a157600080fd5b506100e76101b0366004610b6a565b6104f4565b3480156101c157600080fd5b506100e76101d0366004610b6a565b6107ea565b3480156101e157600080fd5b50600154610109906001600160a01b031681565b34801561020157600080fd5b5061024e610210366004610b51565b6004602081905260009182526040909120805460018201546002830154600384015493909401546001600160a01b0390921693909260ff9091169185565b604080516001600160a01b0390961686526020860194909452911515928401929092526060830191909152608082015260a00161011d565b6100e7610294366004610b51565b6108f3565b3480156102a557600080fd5b5061013c6102b4366004610b51565b60056020526000908152604090205481565b3480156102d257600080fd5b50600254610109906001600160a01b031681565b6002546001600160a01b031633146103315760405162461bcd60e51b81526020600482015260096024820152682737ba1030b236b4b760b91b60448201526064015b60405180910390fd5b600a81111561037a5760405162461bcd60e51b81526020600482015260156024820152744665652063616e6e6f74206578636565642031302560581b6044820152606401610328565b600380549082905560408051828152602081018490527fd347e206f25a89b917fc9482f1a2d294d749baa4dc9bde7fb495ee11fe491643910160405180910390a15050565b6000818152600460205260409020600281015460ff166103f15760405162461bcd60e51b815260040161032890610b8c565b80546001600160a01b031633146104375760405162461bcd60e51b815260206004820152600a6024820152692737ba1039b2b63632b960b11b6044820152606401610328565b60028101805460ff1916905560405182907f411aee90354c51b1b04cd563fcab2617142a9d50da19232d888547c8a1b7fd8a90600090a25050565b6002546001600160a01b031633146104b85760405162461bcd60e51b81526020600482015260096024820152682737ba1030b236b4b760b91b6044820152606401610328565b6002546040516001600160a01b03909116904780156108fc02916000818181858888f193505050501580156104f1573d6000803e3d6000fd5b50565b60005460405163b9209e3360e01b81523360048201526001600160a01b039091169063b9209e3390602401602060405180830381865afa15801561053c573d6000803e3d6000fd5b505050506040513d601f19601f820116820180604052508101906105609190610bb8565b6105a05760405162461bcd60e51b8152602060048201526011602482015270155cd95c881b9bdd081d995c9a599a5959607a1b6044820152606401610328565b6001546040516331a9108f60e11b81526004810184905233916001600160a01b031690636352211e90602401602060405180830381865afa1580156105e9573d6000803e3d6000fd5b505050506040513d601f19601f8201168201806040525081019061060d9190610be1565b6001600160a01b0316146106555760405162461bcd60e51b815260206004820152600f60248201526e2737ba103a37b5b2b71037bbb732b960891b6044820152606401610328565b600081116106a55760405162461bcd60e51b815260206004820152601c60248201527f5072696365206d7573742062652067726561746572207468616e2030000000006044820152606401610328565b6000828152600560209081526040808320548352600490915290206002015460ff16156107055760405162461bcd60e51b815260206004820152600e60248201526d105b1c9958591e481b1a5cdd195960921b6044820152606401610328565b6006805490600061071583610c20565b90915550506040805160a081018252338082526020808301858152600184860181815260608601898152426080880190815260068054600090815260048089528b82209a518b546001600160a01b0319166001600160a01b03909116178b559651958a0195909555925160028901805460ff191691151591909117905590516003880155519590920194909455548684526005825292849020839055925184815290928592917fcf4ebbb01b0166b4c3bb06d2edd4860d56a19f40c14454fdeb07220bf1752924910160405180910390a45050565b6000828152600460205260409020600281015460ff1661081c5760405162461bcd60e51b815260040161032890610b8c565b80546001600160a01b031633146108625760405162461bcd60e51b815260206004820152600a6024820152692737ba1039b2b63632b960b11b6044820152606401610328565b600082116108b25760405162461bcd60e51b815260206004820152601c60248201527f5072696365206d7573742062652067726561746572207468616e2030000000006044820152606401610328565b6001810182905560405182815283907f66bcde9f7aec9b81719a4fdec54cbafbf6c834d1f2f989d9cd2134dab8d0c0de9060200160405180910390a2505050565b6000818152600460205260409020600281015460ff166109255760405162461bcd60e51b815260040161032890610b8c565b80600101543410156109705760405162461bcd60e51b8152602060048201526014602482015273125b9cdd59999a58da595b9d081c185e5b595b9d60621b6044820152606401610328565b80546001600160a01b031633036109c25760405162461bcd60e51b815260206004820152601660248201527543616e6e6f7420627579206f776e206c697374696e6760501b6044820152606401610328565b60028101805460ff1916905560035460018201546000916064916109e69190610c39565b6109f09190610c56565b90506000818360010154610a049190610c78565b600154845460038601546040516323b872dd60e01b81526001600160a01b039283166004820152336024820152604481019190915292935016906323b872dd90606401600060405180830381600087803b158015610a6157600080fd5b505af1158015610a75573d6000803e3d6000fd5b505084546040516001600160a01b03909116925083156108fc02915083906000818181858888f19350505050158015610ab2573d6000803e3d6000fd5b508260010154341115610afe57600183015433906108fc90610ad49034610c78565b6040518115909202916000818181858888f19350505050158015610afc573d6000803e3d6000fd5b505b336001600160a01b03168360030154857f8438a66ac04db2e2324d5927beca96c400ee09b811c5da2b153d4fa7412628e58660010154604051610b4391815260200190565b60405180910390a450505050565b600060208284031215610b6357600080fd5b5035919050565b60008060408385031215610b7d57600080fd5b50508035926020909101359150565b6020808252601290820152714c697374696e67206e6f742061637469766560701b604082015260600190565b600060208284031215610bca57600080fd5b81518015158114610bda57600080fd5b9392505050565b600060208284031215610bf357600080fd5b81516001600160a01b0381168114610bda57600080fd5b634e487b7160e01b600052601160045260246000fd5b600060018201610c3257610c32610c0a565b5060010190565b8082028115828204841417610c5057610c50610c0a565b92915050565b600082610c7357634e487b7160e01b600052601260045260246000fd5b500490565b81810381811115610c5057610c50610c0a56fea2646970667358221220fb02557ef6e1984227b57d722929328366f6991f31b961e77b9ffd49b8e3abab64736f6c63430008140033",
  "linkReferences": {},
  "deployedLinkReferences": {}
}