{
  "_format": "hh-sol-artifact-1",
  "contractName": "AlbashReputation",
  "sourceName": "contracts/AlbashReputation.sol",
  "abi": [
    {
      "inputs": [
        {
          "internalType": "address",
          "name": "_accessControl",
          "type": "address"
        }
      ],
      "stateMutability": "nonpayable",
      "type": "constructor"
    },
    {
      "anonymous": false,
      "inputs": [
        {
          "indexed": true,
          "internalType": "address",
          "name": "oldAdmin",
          "type": "address"
        },
        {
          "indexed": true,
          "internalType": "address",
          "name": "newAdmin",
          "type": "address"
        }
      ],
      "name": "AdminChanged",
      "type": "event"
    },
    {
      "anonymous": false,
      "inputs": [
        {
          "indexed": true,
          "internalType": "address",
          "name": "user",
          "type": "address"
        },
        {
          "indexed": false,
          "internalType": "uint256",
          "name": "score",
          "type": "uint256"
        },
        {
          "indexed": false,
          "internalType": "string",
          "name": "reason",
          "type": "string"
        }
      ],
      "name": "ReputationUpdated",
      "type": "event"
    },
    {
      "inputs": [],
      "name": "accessControl",
      "outputs": [
        {
          "internalType": "address",
          "name": "",
          "type": "address"
        }
      ],
      "stateMutability": "view",
      "type": "function"
    },
    {
      "inputs": [],
      "name": "admin",
      "outputs": [
        {
          "internalType": "address",
          "name": "",
          "type": "address"
        }
      ],
      "stateMutability": "view",
      "type": "function"
    },
    {
      "inputs": [
        {
          "internalType": "address",
          "name": "_newAdmin",
          "type": "address"
        }
      ],
      "name": "changeAdmin",
      "outputs": [],
      "stateMutability": "nonpayable",
      "type": "function"
    },
    {
      "inputs": [
        {
          "internalType": "address",
          "name": "user",
          "type": "address"
        },
        {
          "internalType": "uint256",
          "name": "amount",
          "type": "uint256"
        },
        {
          "internalType": "string",
          "name": "reason",
          "type": "string"
        }
      ],
      "name": "decreaseReputation",
      "outputs": [],
      "stateMutability": "nonpayable",
      "type": "function"
    },
    {
      "inputs": [
        {
          "internalType": "address",
          "name": "user",
          "type": "address"
        },
        {
          "internalType": "uint256",
          "name": "amount",
          "type": "uint256"
        },
        {
          "internalType": "string",
          "name": "reason",
          "type": "string"
        }
      ],
      "name": "increaseReputation",
      "outputs": [],
      "stateMutability": "nonpayable",
      "type": "function"
    },
    {
      "inputs": [
        {
          "internalType": "address",
          "name": "",
          "type": "address"
        }
      ],
      "name": "reputation",
      "outputs": [
        {
          "internalType": "uint256",
          "name": "",
          "type": "uint256"
        }
      ],
      "stateMutability": "view",
      "type": "function"
    },
    {
      "inputs": [
        {
          "internalType": "address",
          "name": "_accessControl",
          "type": "address"
        }
      ],
      "name": "setAccessControl",
      "outputs": [],
      "stateMutability": "nonpayable",
      "type": "function"
    }
  ],
  "bytecode": "0x608060405234801561001057600080fd5b5060405161078e38038061078e83398101604081905261002f91610062565b60008054336001600160a01b031991821617909155600180549091166001600160a01b0392909216919091179055610092565b60006020828403121561007457600080fd5b81516001600160a01b038116811461008b57600080fd5b9392505050565b6106ed806100a16000396000f3fe608060405234801561001057600080fd5b506004361061007d5760003560e01c806364951eb01161005b57806364951eb0146100da5780638f283970146100ed578063b9f7945114610100578063f851a4401461012e57600080fd5b806313007d551461008257806319129e5a146100b257806341b880ec146100c7575b600080fd5b600154610095906001600160a01b031681565b6040516001600160a01b0390911681526020015b60405180910390f35b6100c56100c03660046104f3565b610141565b005b6100c56100d536600461052b565b6101d4565b6100c56100e836600461052b565b6102de565b6100c56100fb3660046104f3565b61041b565b61012061010e3660046104f3565b60026020526000908152604090205481565b6040519081526020016100a9565b600054610095906001600160a01b031681565b6000546001600160a01b0316331461018c5760405162461bcd60e51b81526020600482015260096024820152682737ba1030b236b4b760b91b60448201526064015b60405180910390fd5b6001600160a01b0381166101b25760405162461bcd60e51b8152600401610183906105f6565b600180546001600160a01b0319166001600160a01b0392909216919091179055565b6001546001600160a01b03163314806101f757506000546001600160a01b031633145b6102345760405162461bcd60e51b815260206004820152600e60248201526d139bdd08185d5d1a1bdc9a5e995960921b6044820152606401610183565b6001600160a01b03831661025a5760405162461bcd60e51b8152600401610183906105f6565b6001600160a01b03831660009081526002602052604081208054849290610282908490610635565b90915550506001600160a01b038316600081815260026020526040908190205490517fc17e77081800e4bec45161da763d23d62f41146fb2629ee32a8fea0765743a12916102d191859061064e565b60405180910390a2505050565b6001546001600160a01b031633148061030157506000546001600160a01b031633145b61033e5760405162461bcd60e51b815260206004820152600e60248201526d139bdd08185d5d1a1bdc9a5e995960921b6044820152606401610183565b6001600160a01b0383166103645760405162461bcd60e51b8152600401610183906105f6565b6001600160a01b0383166000908152600260205260409020548210156103b7576001600160a01b038316600090815260026020526040812080548492906103ac9084906106a4565b909155506103d19050565b6001600160a01b0383166000908152600260205260408120555b6001600160a01b038316600081815260026020526040908190205490517fc17e77081800e4bec45161da763d23d62f41146fb2629ee32a8fea0765743a12916102d191859061064e565b6000546001600160a01b031633146104615760405162461bcd60e51b81526020600482015260096024820152682737ba1030b236b4b760b91b6044820152606401610183565b6001600160a01b0381166104875760405162461bcd60e51b8152600401610183906105f6565b600080546001600160a01b038381166001600160a01b0319831681178455604051919092169283917f7e644d79422f17c01e4894b5f4f588d331ebfa28653d42ae832dc59e38c9798f9190a35050565b80356001600160a01b03811681146104ee57600080fd5b919050565b60006020828403121561050557600080fd5b61050e826104d7565b9392505050565b634e487b7160e01b600052604160045260246000fd5b60008060006060848603121561054057600080fd5b610549846104d7565b925060208401359150604084013567ffffffffffffffff8082111561056d57600080fd5b818601915086601f83011261058157600080fd5b81358181111561059357610593610515565b604051601f8201601f19908116603f011681019083821181831017156105bb576105bb610515565b816040528281528960208487010111156105d457600080fd5b8260208601602083013760006020848301015280955050505050509250925092565b6020808252600f908201526e496e76616c6964206164647265737360881b604082015260600190565b634e487b7160e01b600052601160045260246000fd5b808201808211156106485761064861061f565b92915050565b82815260006020604081840152835180604085015260005b8181101561068257858101830151858201606001528201610666565b506000606082860101526060601f19601f830116850101925050509392505050565b818103818111156106485761064861061f56fea264697066735822122067f91ed0c5e9420beb6a225559bfdf3b4d9cf54bc0dd5104e3112add56d4988764736f6c63430008140033",
  "linkReferences": {},
  "deployedLinkReferences": {}
}